:020000040800F2
:10000000306C0020DD010008EF17000853160008CF
:10001000ED17000895030008B5180008000000005F
:10002000000000000000000000000000F3170008BE
:100030009703000800000000F1170008F5170008FA
:10004000F7010008F7010008F7010008F7010008B0
:10005000F7010008F7010008F7010008F7010008A0
:10006000F7010008F7010008F7010008F701000890
:10007000F7010008F7010008F7010008F701000880
:10008000F7010008F7010008F7010008F701000870
:10009000F7010008F7010008F7010008F701000860
:1000A000F7010008F7010008F7010008F701000850
:1000B000F7010008F7010008F7010008F701000840
:1000C000F7010008F7010008F7010008F701000830
:1000D000F7010008F7010008F7010008F701000820
:1000E000F7010008F7010008F7010008F701000810
:1000F000F7010008F7010008F7010008F701000800
:10010000F7010008F7010008F7010008F7010008EF
:10011000F7010008F7010008F7010008F7010008DF
:10012000F7010008F7010008F7010008F7010008CF
:10013000F7010008F7010008F7010008F7010008BF
:10014000F7010008F7010008F7010008F7010008AF
:10015000F7010008F7010008F7010008F70100089F
:10016000F7010008F7010008F7010008F70100088F
:10017000F7010008F7010008F7010008000000007F
:10018000F7010008F7010008F7010008F70100086F
:10019000F7010008F7010008F7010008F70100085F
:1001A000F7010008F7010008F7010008F70100084F
:1001B000F7010008F7010008F7010008F70100083F
:1001C000F7010008F7010008DFF80CD000F0D0F8C4
:1001D00000480047EF410008306C00200648804787
:1001E00006480047FEE7FEE7FEE7FEE7FEE7FEE71C
:1001F000FEE7FEE7FEE7FEE799180008C9010008E0
:100200002DE9F05F0546002092469B46884606464B
:10021000814640241BE0284641464746224600F0DE
:1002200097F853465A46C01A914110D311461846C2
:10023000224600F07EF82D1A67EB01084F46224651
:100240000120002100F075F817EB00094E41201E37
:10025000A4F10104DFDC484631462A464346BDE8A6
:10026000F09F00000649074A0868504343F23902EC
:10027000104408604008704701490860704700005A
:10028000D40000206D4EC64110B5431A934209D2E6
:100290008318881803E010F8011D03F8011D521E91
:1002A000F9D210BD40EA01039B0703D009E008C959
:1002B000121F08C0042AFAD203E011F8013B00F82B
:1002C000013B521EF9D210BDD2B201E000F8012B61
:1002D000491EFBD270470022F6E710B513460A46C6
:1002E00004461946FFF7F0FF204610BD30B504461E
:1002F0000020034600E05B1C934203D2E05CCD5C2F
:10030000401BF8D030BD30B50B46014600202022FE
:10031000012409E021FA02F59D4205D303FA02F512
:10032000491B04FA02F52844151EA2F10102F1DC72
:1003300030BD202A04DB203A00FA02F10020704789
:100340009140C2F1200320FA03F319439040704713
:10035000202A04DB203A21FA02F00021704721FA1A
:1003600002F3D040C2F12002914008431946704781
:10037000064C074D06E0E06840F0010394E80700F2
:1003800098471034AC42F6D3FFF722FFF0BC0008C8
:1003900010BD0008FEE7704738B50446006800F558
:1003A0008050816941F480118161206800F580509E
:1003B00080690090012000F099F82068009900F50C
:1003C0008050816138BD00002DE9F041044621B123
:1003D0004FF40061C800C4E90201E069002500286B
:1003E00062D028462368D4E9021C3A4F40261A6896
:1003F00041EA0C0101433A4041F400701043186097
:1004000020680768012000F071F820680760206804
:10041000466020684668012000F068F820684FF6C2
:1004200041724660206885602068C56021688869DF
:10043000104040F08000886120688669012000F04B
:1004400055F8206886612068C5612068C56901206B
:1004500000F04CF82068204B2049C561206800F569
:10046000805082691A4011438161206800F58050F4
:100470008569012000F03AF82068194900F580509C
:100480008561206800F580500160206800F580508B
:100490000568012000F02AF8206800F5805005600A
:1004A000A069012803D009E04FF480609AE7206832
:1004B0000C4A00F58050C1691143C16160690A4965
:1004C00082880A640278D0F8010042EA0020486479
:1004D000BDE8F0810F8120FF233FDEF804002002F9
:1004E0008020C102400001000080024070B5044637
:1004F00000F052FD0546601C02D004480078044418
:1005000000F04AFD401BA042FAD370BD1800002045
:100510002DE9F047054690F845000C4601287DD0AE
:1005200002214FF0010985F84590002C85F8441010
:1005300077D094E80901E7681843D4E90423D5E9A2
:10054000021648EA070840EA0800D4F82080084369
:1005500029681043626AD4E9067C18430B6830436B
:1005600038433B4E40EA0C00A76A40EA08001043BB
:100570003340384318430860286806680120FFF7B5
:10058000B5FF2868066004F13401D4E90B03276C39
:1005900091E8061018432B6811430843D4E911620F
:1005A00040EA0C00384330431043586028684668DE
:1005B0000120FFF79BFF28684FF6417346602968CA
:1005C000E06C88602968206DC860B4F85460D4E994
:1005D0001607216E2A68384341EA064CD4E9197699
:1005E000916940EA0C003843194030430843906158
:1005F000286886690120FFF779FF28688661D4E9B9
:100600001B012A680843D0612868C4690120FFF7EC
:100610006DFF2868C46114E000E002E00220BDE83C
:10062000F0872968D5E902030A68184322F490424A
:1006300010430860286804680120FFF757FF286806
:100640000460002185F84490084685F84510E6E7E7
:100650000F8120FF2DE9F04390F845400025012C43
:100660000DD04FF0010980F84590022644F2F4576E
:1006700080F844605E1E4FF0004C816217E002205B
:10068000BDE8F083C5EBC51801EB451408EB48083D
:1006900002EB8808C4F800C0B542C4E9017804D26E
:1006A00004F12008C4F80C8000E0E1606D1C9D425C
:1006B000E8D30368002403F58053D96080F84490A0
:1006C00080F845402046DBE72DE9F04390F84540AF
:1006D00091460022012C09D0C1620126022480F833
:1006E00045605D1E80F84440E70422E00220BDE83A
:1006F000F08300BFC2EBC21404EB440801EB4214C8
:1007000009EB880C2760C4F808C0D0F81CC0BCF105
:10071000000F05D1D4F800C04CF4400CC4F800C060
:10072000AA4204D204F1200CC4F80CC000E0E1603D
:10073000521C9A42DED30268002302F580521161F6
:1007400080F8446080F845301846D0E710B590F83E
:100750004510012913D0012280F84520022180F89C
:1007600044100023816A0C68002C28DB0C68E40527
:1007700019D5846B641C8463012C02D002E0022032
:1007800010BD016341630C68C4F30D44241FC463AE
:10079000046BA4680464C968816280F8442080F80E
:1007A0004530002010BD0C68A40503D58263C0E964
:1007B0000C1302E0846B641C8463C968816280F856
:1007C000442080F84530012010BD00002DE9FC4791
:1007D0004FF000060400B146009603D094F84400A0
:1007E00018B107E00120BDE8FC87204684F8456089
:1007F00000F0E4F86748016841F480410160006856
:1008000000F4804001906448016821F40001016017
:100810000168226A11430160206800F58050016878
:1008200041F00101016000F0B7FB4FF4FA77054693
:1008300009E000BF00F0B0FB401BB84203D9032021
:1008400084F8440068E0206800F580500068C00724
:10085000F0D12068006920F01C0500F0EFFC4F4A41
:100860004F4902448A4202D245F0080516E04D493C
:100870004D4A0144914202D245F00C050EE04B4A2C
:100880004B4902448A4209D34A4A4B4910448842A0
:1008900002D245F0040501E045F01005206805612D
:1008A00000214FF40042204600F04CFA4FF00105C1
:1008B000B0BBFF20FFF71AFE606890B300F06CFB3E
:1008C000804641F2883701216A46204600F0EAF866
:1008D00000F062FBA0EB0800B84217D80098400770
:1008E000F1D5002120464FF4805200F02BFAB8B920
:1008F00000F052FB80466A460121204600F0D2F803
:1009000000F04AFBA0EB0800B8420BD901212046B9
:10091000FFF75AFD84F84450032084F8456062E7ED
:1009200024E018E000988006E5D510216A462046AC
:1009300000F0B8F8D0B90098410703D54FF4006132
:10094000E16000E0E660800701D5A66019E04FF4A1
:100950008040A06015E0D4E90210C00840EA5100D0
:1009600082B22046002100F0EDF930B1012120468D
:10097000FFF72AFD84F8445034E740F6FF70FFF794
:10098000B5FD49462046FFF71FFD84F8445000207E
:1009900029E70000443802400438014000D3CEFE6D
:1009A000C0E1E40040F1E9FD40787D0100796CFC94
:1009B000005A6202001F0AFA80F0FA02F0B587B00E
:1009C000044614216846FFF786FC304920688842B7
:1009D00059D12F48016841F000710160016801F0B0
:1009E00000710591016841F080610160016801F0CA
:1009F00080610591016841F000610160016801F0CA
:100A000000610591016841F004010160016801F095
:100A100004010591016841F001010160016801F0E4
:100A200001010591016841F002010160016801F0D6
:100A300002010591016841F0400101600068022453
:100A40000025694600F04000059003260B27322060
:100A50008DE8F1000F4800F0B3F9862069468DE873
:100A6000F1000D4800F0ACF9200369468DE8F10073
:100A70000A4800F0A5F94FF4205069468DE8F100CE
:100A8000074800F09DF907B0F0BD0000008002406B
:100A900030380240000802400000024000040240DA
:100AA000001802402DE9F047044690F844009146B2
:100AB00082281DD082224FF6FF7084F844204FF424
:100AC000F863226803EA8111258A136900EAC520C8
:100AD00003F01C031843014321F0020040F001051C
:100AE000156100F059FA012706464FF4803811E0ED
:100AF0000220BDE8F08700BF00F04EFA801B4045A1
:100B000006D3002084F8447084F845000320F0E701
:100B100020680569E807EFD12068406981B2C9F80B
:100B2000001084F844700020E3E7F8B5044690F81C
:100B30004500012839D0012584F84550022084F869
:100B4000440020680026016841F008010160206827
:100B5000006800902846FFF7C9FC216800980860EB
:100B60002068016841F0040101602068006800907D
:100B70000120FFF7BBFC2168009808602046FFF7C2
:100B80000BFC206800F58050816941F400518161BF
:100B9000206800F58050816941F00201816184F88C
:100BA0004450002084F84560F8BD0220F8BDF8B537
:100BB000044690F84500012839D0012584F84550B5
:100BC000022084F84400206800F58050816921F4F7
:100BD00000518161206800F58050816921F0020197
:100BE000816120680026016821F00401016020680D
:100BF000006800900120FFF779FC216800980860E8
:100C00002046FFF7C9FB2068016821F00801016058
:100C10002068006800900120FFF768FC21680098B8
:100C2000086084F84450002084F84560F8BD022034
:100C3000F8BDF0B590F845200023012A13D0012615
:100C400080F84560022280F844204FF0000561B131
:100C5000C76A3A68002A0BDA122180F8441080F83B
:100C600045500120F0BD0220F0BD80F84460F6E759
:100C700040F2F454A1420BD9B1FBF4F204FB121C74
:100C8000B1FBF4F2BCF1000F00D0521C012A45D197
:100C90003A68C1F30C0142F040523A60C26A5160B6
:100CA000C16A0A6842F000420A60C16AC968C1624A
:100CB00036E0D7F800C02CF0405CC7F800C033B96C
:100CC000C76AD7F800C04CF0805CC7F800C0D0F805
:100CD0002CC0571EBB42CCF8044014D1C76AC2F1E5
:100CE000010ED7F800C0CEEBCE1E4CF0005CC7F86A
:100CF00000C00EEB4E0ED0F82CC001EB8E07C7F3F0
:100D00000C07CCF80470C76AD7F800C04CF0004C50
:100D1000C7F800C0C76A5B1CFF68C7629342C8D3AC
:100D2000016801F580514A69520705D504224A61DC
:100D3000016801F580514D6080F8446080F84550AD
:100D40000020F0BD2DE9F041044690F8440042280F
:100D50001ED042204FF6FF7384F8440096B22068FC
:100D60004FF4F867258A07EA81110269466103EAB0
:100D7000C520236802F01C021043014341F0030523
:100D80001D6100F009F9012706464FF4803811E093
:100D90000220BDE8F08100BF00F0FEF8801B404556
:100DA00006D3002084F8447084F845000320F0E75F
:100DB00020680569E807EFD184F84470E9E700008E
:100DC0002DE9F84F00224FF001094FF0030A4FF0D0
:100DD0000F0E00BF0B6809FA02F42340A34270D142
:100DE0004D68012D05D0022D03D0112D01D0122DFB
:100DF00011D185685700CE680AFA07FC25EA0C0570
:100E0000BE402E43866045680E79A543C6F30016A2
:100E100096402E434660C56856008F680AFA06F46D
:100E2000A543B7402F43C7604D68022D01D0122D56
:100E300012D1D5080F694FEA427C00EB8505AB461D
:100E40002D6A4FEADC6C0EFA0CF807FA0CF725EA6B
:100E500008052F43CBF820700D79076805F00305CE
:100E6000A743B5403D4305604C68E40074D53D4C54
:100E7000256845F480452560246822F0030796071D
:100E800004F480440094384C360F2744D7F80848BF
:100E9000DFF8D8C00EFA06F5604524EA050401D152
:100EA00000252EE0324DA84201D1012529E0314D27
:100EB000A84201D1022524E02F4DA84202D10325EA
:100EC0001FE049E02D4DA84201D1042519E02C4D29
:100ED000A84201D1052514E02A4DA84201D10625DA
:100EE0000FE0294DA84201D107250AE0274DA8426D
:100EF00001D1082505E0264DA84201D1092500E0D1
:100F00000A25B540234E2543C7F808584D68346874
:100F1000ED0324EA030400D51C431E4D34602D1D4F
:100F20004E682C68B60324EA030400D51C43194E0E
:100F30002C6008364D683468ED0224EA030400D5BD
:100F40001C43144D34600C354E682C68B60224EAFC
:100F5000030400D51C432C60521C102AFFF43AAF46
:100F6000BDE8F88F443802400030014000000240E4
:100F70000004024000080240000C02400010024041
:100F80000014024000180240001C024000200240F1
:100F900000240240003C0140014880687047000086
:100FA000180000200248816802781144816070476F
:100FB00018000020032010B500F060F8002000F0B9
:100FC00005F800F023F8002010BD000070B50D4DAD
:100FD00004464FF47A700C4A29781268B0FBF1F09D
:100FE000B2FBF0F000F022FB48B9102C07D200222F
:100FF0002146501E00F022F800206C6070BD0120D8
:1010000070BD000018000020240000200A4808B528
:10101000016841F080510160006800F0805000904C
:101020000548001D016841F480410160006800F43A
:101030008040009008BD0000403802400E4BF0B4E4
:101040001B680D46C3F30223C3F10706042E00D923
:101050000426191D072901D2002300E0DB1E01240C
:1010600004FA06F19C40491E2940641E9940144030
:101070002143F0BC00F044BC0CED00E0064900F058
:10108000070210B54FF6FF040868044B204040EA01
:1010900002201843086010BD0CED00E00000FA05C6
:1010A0001848F8B5016841F0805101600068164C9D
:1010B00000F080500090206840F480302060FFF7FE
:1010C0006BFF4FF47A76054605E000BFFFF764FF3B
:1010D000401BB0420FD86068C003F7D5206840F4C9
:1010E00000302060FFF758FF054606E0FFF754FF89
:1010F000401BB04201D90320F8BD60688003F5D5DC
:101100000020F8BD40380240007000402DE9F04753
:1011100005000F4663D0444E306800F00F00B8421F
:1011200009D2306820F00F0038433060306800F09A
:101130000F00B84253D128683C4C810712D54007B4
:1011400003D5206840F4E05020602878000703D5DC
:10115000206840F460402060A968206820F0F0001A
:10116000084320602878C0072AD0304968680839C9
:10117000012810D00968022810D0890700292EDA2A
:10118000216821F0030101432160FFF705FF80463C
:1011900041F288390DE009688903EFE78901EDE73D
:1011A000FFF7FAFEA0EB0801494502D90320BDE88C
:1011B000F0876868216801F00C01B1EB800FEFD176
:1011C000306800F00F00B8420BD9306820F00F00F3
:1011D00038433060306800F00F00B84201D0012081
:1011E000E5E72878400705D5E968206820F4E05055
:1011F000084320602878000706D52869216821F473
:10120000604141EAC000206000F01EF82168084AF1
:10121000C1F30311515CC8400649086006480068E4
:10122000FFF7D4FE0020C2E7003C0240083802402D
:10123000C0BA0008240000201C00002001480068FB
:101240007047000024000020154910B515480968B2
:1012500011F00C0213D04110042A0FD0082A0ED12D
:101260000F4C241F2268236802F03F025B0207D55F
:101270002068C0F38810A0FB010106E0084610BDFD
:101280002168C1F38811A1FB00010023FEF7B8FF1C
:101290002168C1F30141491C4900B0FBF1F010BDC8
:1012A000083802400024F4002DE9F84F04004FF004
:1012B00000076ED02078DFF868A3AAF10408C00701
:1012C000A8F104054CD0DAF800105046C1F38101B2
:1012D000012908D00068C0F3810002280AD1D8F89B
:1012E0000000400206D52868800339D560680028D0
:1012F000DFD035E06068B0F5803F0BD010B1B0F5BD
:10130000A02F11D0286820F480302860286820F4AD
:10131000802002E0286840F480302860606890B146
:10132000FFF73AFE06460AE0286840F4802028606D
:10133000F0E700BFFFF730FE801B642872D82868F2
:101340008003F7D50CE0FFF727FE064605E000BF57
:10135000FFF722FE801B6428F0D828688003F7D4AA
:101360002078800742D5DAF80010504611F00C0FB3
:1013700008D00068C0F3810002280BD1D8F8000023
:10138000400207D42868800718D5E068012800D1FA
:1013900014E041E1E0680028286817D040F001001F
:1013A0002860FFF7F9FD064605E000BFFFF7F4FDF2
:1013B000801B0228C2D828688007F7D520692968D1
:1013C00021F0F80141EAC00028600FE020F00100A0
:1013D0002860FFF7E1FD064605E000BFFFF7DCFDF2
:1013E000801B02281ED828688007F7D420780007C1
:1013F00029D58B4861696C3000298146016812D07B
:1014000041F001010160FFF7C7FD064605E000BF9E
:10141000FFF7C2FD801B022804D8D9F8000080071E
:10142000F6D510E089E021F001010160FFF7B4FD7D
:10143000064604E0FFF7B0FD801B02287DD8D9F8EE
:1014400000008007F6D4207840076BD5DFF8D091F4
:1014500009F13809D9F80000C0000BD4D9F8001000
:1014600041F08051C9F80010D9F80000012700F0C0
:10147000805000906B480168C90512D4016883460A
:1014800041F480710160FFF787FD064605E000BF6B
:10149000FFF782FD801B64284FD8DBF80000C005F1
:1014A000F6D55F4EA068683601280AD008B1052835
:1014B00011D0306820F001003060306820F0040066
:1014C00002E0306840F001003060A068A0B1FFF792
:1014D00063FD83460CE0306840F004003060F0E7C4
:1014E000FFF75AFDA0EB0B0141F28830814266D82C
:1014F00030688007F4D50EE0FFF74EFD834607E025
:10150000FFF74AFDA0EB0B0141F28830814256D82B
:1015100030688007F4D42FB1D9F8001021F0805141
:10152000C9F80010A069C8B3DAF80010C1F381014E
:1015300002294BD00228286800E040E020F08070AB
:10154000286003D0FFF728FD04463BE0FFF724FDA9
:10155000064604E0FFF720FD801B02282FD82868EC
:101560008001F7D4D4E90962D4E907012E4B57086A
:1015700094F82C20084303EB074343EA8611084301
:1015800040EA026040F00050C8F80000286840F0CF
:1015900080702860FFF700FD044606E03EE000BFD3
:1015A000FFF7FAFC001B022809D828688001F7D54C
:1015B00034E000BFFFF7F0FC001B022802D9032033
:1015C000BDE8F88F28688001F4D427E00128D8F816
:1015D000000021D0E16900F480028A421CD1216A16
:1015E00000F03F028A4217D1626A47F6C07101409B
:1015F000B1EB821F10D1A16A4FF0FF3200F44033EB
:1016000002EB5101B3EB014F06D194F82C1000F01E
:101610007060B0EB016F01D00120D1E70020CFE76F
:1016200008380240007000400000FFFF401EB0F18B
:10163000807F10B501D3012010BD4FF0E024606120
:101640000F21601700F05CF90020A06107212161E3
:1016500010BDFEE707490968C9070AD00549803966
:101660000968C90705D04FF060410A68002AFCD01C
:1016700008707047800E00E0154808B5016841F019
:1016800080010160016801F080010091016841F072
:1016900004010160016801F004010091016841F05A
:1016A00001010160016801F001010091016841F050
:1016B00002010160016801F002010091016841F03E
:1016C00040010160006800F04000009008BD00008B
:1016D00030380240FEB53B4CC021A822251D002712
:1016E00021706F236270FF20A7702E1DE37001230D
:1016F00028706870A870EF7031707270B770F370F6
:1017000002F066FD2068E1782F4A90FA80FC2F4BAA
:1017100090FA80FE00BA0C060CF47F4C084344EAB1
:101720000C240EF47F0CA5F1100144EA1C2444EAB9
:10173000106008602868E97890FA80FC05BA00BA61
:101740000C06084305F47F450CF47F0CA6F110014C
:1017500044EA052444EA1C2444EA10600860306826
:10176000F17805BA06BA00BA0C060843154905F423
:101770007F45091F06F47F0644EA052444EA16243F
:1017800044EA106008600097CDE901320A1F104852
:101790000B46083903F0F2F80D4803F00BFB0C4838
:1017A00090F82D0040070A4802D503F061FB01E0E4
:1017B00003F006FB03B007490548BDE8F04003F01D
:1017C00053BB00000C00002041290008DD2A00085E
:1017D000C0310020912B0008034810B501F0C6F974
:1017E000BDE8104004F0AABBC0310020FEE7FEE7D0
:1017F00070477047FFF7D6BB30B593B030216846CD
:10180000FEF769FD14210CA8FEF765FD204801686C
:1018100041F080510160006800F0805011901D4837
:10182000016841F4404101600068022404230893E8
:1018300000F4404011900120D82582054FF4A021EA
:10184000CDE90642CDE909540B94CDE90001684683
:10185000FFF72AFD08B172B6FEE7FFF721FC08B1D9
:1018600072B6FEE70EAD00214FF4A0524FF4805344
:1018700085E80E000F20CDE90C0407210CA8FFF726
:1018800045FC002801D072B6FEE713B030BD000061
:10189000403802400070004005484FF00061036886
:1018A000034A43F470030360803A116070470000FC
:1018B00088ED00E0FEE700000FB4054B10B503A96A
:1018C000044A029800F03CF810BC5DF814FB0000DC
:1018D000412C0008CC0000200FB4084B10B504A91F
:1018E00002AA039800F02CF8044602A9002000F098
:1018F000C8F9204610BC5DF814FB0000831C0008EA
:10190000090700284FEA116104DB00F1E02080F8AC
:101910000014704700F00F0000F1E02080F8141D63
:10192000704702E008C8121F08C1002AFAD17047A8
:101930007047002001E001C1121F002AFBD170474F
:101940002DE9FF4F8BB088460546002606E0252886
:101950000BD0DDE90D1290476D1C761C287800280D
:10196000F5D10FB03046BDE8F08F0024A146A24665
:101970000122AE4900E0044315F8013F203B02FA82
:1019800003F00842F7D128782A2810D06FF02F02F0
:101990002878A0F13001092915D809EB890102EB5B
:1019A000410144F0020400EB01096D1CF0E758F816
:1019B000041B5FEA010903D544F40054C9F100098E
:1019C00044F002046D1C28782E2817D115F8010F59
:1019D00044F004042A280ED06FF02F022878A0F1DA
:1019E000300109290AD80AEB8A0102EB410100EB18
:1019F000010A6D1CF2E758F804AB6D1C28786C28BE
:101A00000FD006DC4C2817D068280DD06A2814D1D6
:101A100004E0742810D07A280FD10DE044F40014AB
:101A20000AE044F4801401E044F4401469788142EF
:101A300002D104F580146D1C6D1C2878692865D0CE
:101A400006DC00288DD0632827D0642806D15DE00D
:101A50006E2808D073282AD0752877D0DDE90D12BA
:101A60009047761CE0E0C4F30250022809D0032816
:101A70000DD0D8F8001004280DD00E6008F104082D
:101A8000D2E0D8F80010F217C1E90062F6E7D8F802
:101A900000100E80F2E70E70F0E718F8041B8DF8C6
:101AA000001000208DF80100EB46012003E058F8FB
:101AB00004BB4FF0FF3061074FF0000701D40AE08C
:101AC0007F1C57450DDA8742FADB1BF80710002907
:101AD000F6D106E07F1C8742FCDB1BF807100029CB
:101AE000F8D1DDE90D23A9EB07008146214600F07E
:101AF000B1F83044C61904E0DDE90D121BF8010B02
:101B000090477F1EF8D22146484688E058F8040BDB
:101B1000C4F302514FF00A0B032900D100B204298B
:101B200000D140B2002802DA40422D2102E0210516
:101B300005D52B218DF82410012104E006E0E107F2
:101B400010D02021F6E708AF089113E058F8040BF5
:101B5000C4F302514FF00A0B032900D180B20429CB
:101B600000D1C0B20021EEE75946FEF7CCFB303180
:101B700007F8011D0028F7D1ADEB070000F1200B9D
:101B8000600702D524F4803401E04FF0010ADA4501
:101B900002DDAAEB0B0000E00020824600EB0B0107
:101BA00008980144A9EB01000A90E00306D4DDE99E
:101BB0000D2321460A9800F04DF806444FF0000925
:101BC00008E009A911F80900DDE90D12904709F1B3
:101BD0000109761C08998945F3DBE0030CD5DDE9A2
:101BE0000D2321460A9800F035F8064404E0DDE9AB
:101BF0000D1230209047761CBAF10001AAF1010ABB
:101C0000F5DC05E0DDE90D1217F8010B9047761CB5
:101C1000BBF10001ABF1010BF4DC0A982146DDE9D0
:101C20000D2300F005F806446D1C97E60928010015
:101C30002DE9F041044600251E461746880404D4C9
:101C400005E039462020B0476D1C641EF9D52846B2
:101C5000BDE8F0812DE9F041044600251E4690467E
:101C6000C80301D5302700E02027880404D505E00B
:101C700041463846B0476D1C641EF9D52846BDE87C
:101C8000F0810A68531C0B601070704770B50C46E9
:101C90000546880706D006A34FF4B67210A118A017
:101CA000FFF70AFEA86800682060A868046070BD9D
:101CB0002E2E2F4D6964646C6577617265732F54A5
:101CC000686972645F50617274792F4C7749502F44
:101CD0007372632F636F72652F6D656D702E630075
:101CE0006D656D705F667265653A206D656D20701B
:101CF000726F7065726C7920616C69676E656400E3
:101D0000417373657274696F6E2022257322206699
:101D100061696C6564206174206C696E652025645E
:101D200020696E2025730A0010B580680468002CB5
:101D30000CD02168A207016006D005A34FF48C7275
:101D40000FA118A0FFF7B8FD204610BD002010BD60
:101D50002E2E2F4D6964646C6577617265732F5404
:101D6000686972645F50617274792F4C7749502FA3
:101D70007372632F636F72652F6D656D702E6300D4
:101D80006D656D705F6D616C6C6F633A206D656D34
:101D9000702070726F7065726C7920616C69676E0B
:101DA00065640000417373657274696F6E2022254B
:101DB0007322206661696C6564206174206C696EB1
:101DC0006520256420696E2025730A0070B5094DD1
:101DD0000024064604EB440005EBC000017D29B158
:101DE0008068B04202D1204600F034F9641C0A2C0D
:101DF000F0DB70BD306700202DE9F74F84B04FF065
:101E00000A0B00240646DA465F46D946029401943E
:101E1000009404EB440050490A2F039001EBC008E2
:101E200098F814501DD0002D2AD0012D08D0022D75
:101E300006D24AA340F2231256A166A0FFF73CFD4A
:101E40009EB13168D8F8040081420ED1069820B1C5
:101E5000D8F808100698814207D1204607B0BDE89F
:101E6000F08F002DE1D127460AE0012D16D0022D7A
:101E700006D3B8F812000099884201D3A246009018
:101E8000641C24B20A2CC4DB059881074FF0FF3094
:101E9000E4D40A2F16D018DA3C463EE02E490398C7
:101EA00051F830000028B8F8120005D00299884295
:101EB000E6D3A1460290E3E701998842E0D3A34626
:101EC0000190DDE70599C907C8D0BAF10A0F51465C
:101ED0000EDA0C46204801EB440150F8310080B185
:101EE0001EA340F26D1245A13AA0FFF7E5FC08E001
:101EF000BBF10A0F594603DBB9F10A0F4946ADDAC7
:101F00000C460A2C06DB15A340F27F1241A131A03A
:101F1000FFF7D2FC204600F09DF80A2C06DB0FA349
:101F200040F283123BA12BA0FFF7C6FC0A4804EB4A
:101F3000440100EBC105287D30B108A34FF4C27203
:101F400039A124A0FFF7B8FC0EB130686860002109
:101F50000698A860698280E7306700202E2E2F4DFA
:101F60006964646C6577617265732F546869726423
:101F70005F50617274792F4C7749502F7372632FC1
:101F8000636F72652F697076342F65746861727043
:101F90002E6300007374617465203D3D20455448F4
:101FA0004152505F53544154455F50454E44494E51
:101FB00047207C7C207374617465203E3D2045542D
:101FC000484152505F53544154455F535441424C31
:101FD00045000000417373657274696F6E2022259D
:101FE0007322206661696C6564206174206C696E7F
:101FF0006520256420696E2025730A006172705F78
:102000007461626C655B695D2E71203D3D204E55AB
:102010004C4C000069203C204152505F5441424CDE
:10202000455F53495A4500006172705F7461626C8C
:10203000655B695D2E7374617465203D3D20455478
:10204000484152505F53544154455F454D50545997
:102050000000000070B5074C00EB4005002654F866
:10206000350018B103F0BAFB44F8356004EBC50045
:10207000067570BD306700202DE9F0430D0007465E
:1020800085B009D07C684FF480782088404539D1EC
:102090002079062836D109E01CA340F28A2229A122
:1020A0002CA0FFF709FC05B0BDE8F0836079042897
:1020B00028D16088082825D1D4F80E0004906868DB
:1020C000A16920B1814202D10126334601E00026F8
:1020D0000223284604F1080204A9914600F0A2FB5D
:1020E000E08840450ED16EB10222284604AB291D7E
:1020F000CDE90232CDE9001905F126034A46194619
:1021000000F090FA384603F069FBCCE72E2E2F4DF5
:102110006964646C6577617265732F546869726471
:102120005F50617274792F4C7749502F7372632F0F
:10213000636F72652F697076342F65746861727091
:102140002E6300006E6574696620213D204E554C5B
:102150004C000000417373657274696F6E20222514
:102160007322206661696C6564206174206C696EFD
:102170006520256420696E2025730A00FEB50400E1
:1021800015460E4606D143A340F21E324FA153A07E
:10219000FFF792FB36B93FA340F21F3259A14FA07F
:1021A000FFF78AFB35B93BA34FF4487258A14BA007
:1021B000FFF782FB2868214600F0D8FE08B1584B93
:1021C0003EE02868C0F303110E2924D0D4E9012190
:1021D0000A400140914208D080B2A0F57E41A93961
:1021E00003D0E068B0B304F10C054E4B4E481A78AA
:1021F00002EB420100EBC1010F7D022F2ED38F684D
:10220000A7422BD12F6849688F4227D131462046FB
:1022100000F08CF8FEBD01228DF8042000208DF81E
:1022200005005E218DF80610687801AB00F07F0094
:102230008DF80700A8788DF80800E8788DF8090077
:102240004FF4006004F1260231460090204600F071
:10225000C9FBFEBDFFE76FF00300FAE75FF0000285
:1022600002EB420100EBC1010F7D022F08D38F6802
:10227000A74205D12F6849688F4201D11A70C5E77E
:10228000521CD2B20A2AEBD332462946204600F02D
:10229000D5F8DEE72E2E2F4D6964646C6577617288
:1022A00065732F54686972645F50617274792F4C42
:1022B0007749502F7372632F636F72652F69707641
:1022C000342F6574686172702E6300006E657469E6
:1022D0006620213D204E554C4C0000004173736533
:1022E0007274696F6E2022257322206661696C65A5
:1022F00064206174206C696E6520256420696E20FD
:1023000025730A007120213D204E554C4C000000E1
:1023100069706164647220213D204E554C4C000070
:10232000D0BA0008C0000020306700202DE9F84333
:102330001546884606461C4802EB450100EBC104E1
:10234000207D022806D219A340F2EE2225A131A059
:10235000FFF7B2FA144A05EB4501207D02EBC105F7
:102360000C35022813D1608A0327B0F58E7F04D97B
:10237000211D304600F010FA07E0B0F5877F06D344
:10238000211D2A46304600F00DFA00B927754FF49A
:10239000006006F126022B4641460090304600F0D0
:1023A00021FBBDE8F8830000306700202E2E2F4D62
:1023B0006964646C6577617265732F5468697264CF
:1023C0005F50617274792F4C7749502F7372632F6D
:1023D000636F72652F697076342F657468617270EF
:1023E0002E6300006172705F7461626C655B617284
:1023F000705F6964785D2E7374617465203E3D2062
:102400004554484152505F53544154455F535441E1
:10241000424C4500417373657274696F6E202225CA
:102420007322206661696C6564206174206C696E3A
:102430006520256420696E2025730A002DE9FC5F64
:10244000824614462630019008680E464FF0FF374A
:102450004FF0000B514600F089FD80B93068C0F3A1
:1024600003110E290BD056B148B101215246304616
:10247000FFF7C2FC050005D540B2BDE8FC9F6FF038
:102480000F00FAE77F2D06D337A340F2C13244A1F3
:1024900047A0FFF711FA05F0FF094F4909EB49087A
:1024A00001EBC805287D00280ED0012808D002289D
:1024B00006D22DA340F2CD3248A13DA0FFF7FCF992
:1024C000BBF1000F06D104E0C5F808A00121297571
:1024D00000E034B93146504600F05EF9002C074662
:1024E000CBD0287D3C4E02280ED346494FF40062E3
:1024F00005F10C03504681F8009021460092019AA4
:1025000000F070FA07462DE001282BD1254640F255
:10251000F13768892989884207D1286828B112A330
:102520003A4639A122A0FFF7C7F9287B400607D514
:102530000E2022464FF4207102F084FF044605E08D
:102540002D68002DE5D1204603F0B6FA44B156F8C7
:10255000380008B103F042F9002746F8384001E09E
:102560004FF0FF37384688E72E2E2F4D6964646C94
:102570006577617265732F54686972645F50617228
:1025800074792F4C7749502F7372632F636F726584
:102590002F697076342F6574686172702E63000045
:1025A00074797065206F766572666C6F77000000D5
:1025B000417373657274696F6E20222573222066E1
:1025C00061696C6564206174206C696E65202564A6
:1025D00020696E2025730A00306700206172705FE9
:1025E0007461626C655B695D2E7374617465203D16
:1025F0003D2050454E44494E47206F722053544170
:10260000424C4500C00000206E6F207061636B6516
:10261000742071756575657320616C6C6F77656486
:10262000210000002DE9FF4F81B0984606004FF0D1
:102630000007DDE90FA9DDF838B006D12CA340F280
:10264000574239A13CA0FFF737F91C210E204FF467
:10265000207202F0C1FC050046D068891C2806D211
:1026600023A340F262423EA133A0FFF725F96C6834
:10267000119801F0ABFDE08096F82C00062806D0FA
:1026800044491BA32CA040F26942FFF715F9D8F882
:1026900000100623A1604FF48071B8F80400A081F7
:1026A000DAF80020C4F812200822BAF80400E08208
:1026B000DBF80000C4F80E00D9F80000A061042087
:1026C000218040F606016280237160713046DDE9A9
:1026D00002230091294600F085F9284603F07EF890
:1026E000384605B0BDE8F08F4FF0FF30F9E7000045
:1026F0002E2E2F4D6964646C6577617265732F545B
:10270000686972645F50617274792F4C7749502FF9
:102710007372632F636F72652F697076342F6574DF
:10272000686172702E6300006E6574696620213DD9
:10273000204E554C4C000000417373657274696FF4
:102740006E2022257322206661696C6564206174A5
:10275000206C696E6520256420696E2025730A004F
:10276000636865636B207468617420666972737452
:1027700020706275662063616E20686F6C642073E0
:102780007472756374206574686172705F686472D6
:1027900000000000ACBC0008014A00F003B80000D3
:1027A000D0BA00087FB5064D0124031DCDE90214FF
:1027B000CDE9003522331946FFF734FF04B070BD70
:1027C000D6BA000870B5164D5FF0000404EB440063
:1027D00005EBC0010A7DF2B1488A401C80B24882F4
:1027E000B0F5967F0AD2012A06D0032A0AD0042A1D
:1027F0000AD0012A0BD00EE0052808D32046FFF7A7
:1028000029FC08E0042000E00220087503E0886845
:10281000091DFFF7C1FF641C0A2CD7DB70BD000047
:1028200030670020F8B5044690F82C001F46154686
:1028300006280E4606D020A340F2A9122CA135A0EE
:10284000FFF73AF89EB1306888B1214600F08EFB60
:1028500068B93078C0F303100E2808D022463946F4
:102860003046FFF7C9FA002804DA40B2F8BD6FF02D
:102870000F00F8BD314A00EB4001022302EBC1001A
:102880000375002384602E68C660AE88068243828A
:1028900052F8316076B142F831304FF400602B4687
:1028A00004F1260231460090204600F09BF83046A5
:1028B00002F094FF0020F8BD2E2E2F4D6964646C49
:1028C0006577617265732F54686972645F506172D5
:1028D00074792F4C7749502F7372632F636F726531
:1028E0002F697076342F6574686172702E630000F2
:1028F0006E657469662D3E6877616464725F6C65AD
:102900006E203D3D204554485F4857414444525F46
:102910004C454E00417373657274696F6E202225B9
:102920007322206661696C6564206174206C696E35
:102930006520256420696E2025730A003067002019
:102940002DE9F041044640890E270D460E283CD95A
:10295000E07B18B995F83000401CE073606801789E
:102960008689CA0714D0012905D01D490622FDF722
:10297000BDFC48B10CE0417851B980785E2807D1A0
:10298000607B40F0100002E0607B40F00800607364
:10299000082E03D0B6F5C16F17D10DE095F82D00C4
:1029A000000712D53946204603F0CCF868B929460D
:1029B000204600F027FC10E095F82D00000704D514
:1029C0003946204603F0BEF818B1204602F006FF53
:1029D00003E029462046FFF74FFB0020BDE8F081C9
:1029E000D0BA00082DE9F0411F4690460E46044635
:1029F000069801F0EBFB0E210546304602F088FAFE
:102A000018B16FF00100BDE8F08170688581396808
:102A10000160B9888180D8F80020C0F80620B8F895
:102A20000410418194F82C00062806D006A34FF428
:102A3000997213A11FA0FEF73FFFA26931462046FD
:102A4000BDE8F041104700002E2E2F4D6964646CE4
:102A50006577617265732F54686972645F50617243
:102A600074792F4C7749502F7372632F6E65746998
:102A7000662F65746865726E65742E6300000000D1
:102A80006E657469662D3E6877616464725F6C651B
:102A90006E206D757374206265203620666F72201B
:102AA00065746865726E65745F6F75747075742196
:102AB00000000000417373657274696F6E202225F7
:102AC0007322206661696C6564206174206C696E94
:102AD0006520256420696E2025730A0010B5040066
:102AE00006D10BA340F2112210A114A0FEF7E4FEC0
:102AF0001C49732061611C49A161742184F82E0076
:102B0000204684F82F1001F009FA002010BD0000C3
:102B10002E2E2F4C5749502F5461726765742F65C4
:102B2000746865726E657469662E63006E6574699B
:102B30006620213D204E554C4C00000041737365CA
:102B40007274696F6E2022257322206661696C653C
:102B500064206174206C696E6520256420696E2094
:102B600025730A007D210008DD40000870B5054688
:102B700001F050FA040009D02A692946904700283C
:102B800004D02046BDE8704002F028BE70BD7047FA
:102B90002DE9FC41002506460195009590F82D0091
:102BA000400742D5254C606868B3002120464FF4A9
:102BB0008052FEF7C7F8FEF7EFF94FF47A770190ED
:102BC0001E4801216A46FDF76DFFFEF7E5F9019900
:102BD000401AB84217D800988006F1D5174810213E
:102BE0006A46FDF75FFF0098410703D54FF4006187
:102BF000E16000E0E560800701D5A5600DE04FF4DD
:102C00008040A06009E0D4E90210C00840EA510009
:102C100082B20A480021FEF795F808480021FDF726
:102C200077FC0648FDF781FF02E00448FDF7BFFF8F
:102C30003046FFF7ACFFBDE8FC8100007831002092
:102C4000054A914202D0054A914201D1FEF702BDE8
:102C50004FF0FF3070470000CC000020D000002073
:102C60000A46032100F0F6B82DE9FE4F8A46454991
:102C70000446D1F8088098F800000007870E142F4A
:102C80007BD36089042878D360680078002874D0EA
:102C9000082872D1486901F11405C0F303120E2A05
:102CA0006BD08946096800F061F9002865D1208958
:102CB000082862D307F10E0120460E4602F028F9DB
:102CC000002830D02089C11989B2884255D80E20F9
:102CD0004FF4207202F080F906004ED0718907F19E
:102CE0000800814216D370683A464146FDF7CCFA97
:102CF0003946304602F026FF002806D0B62222A32D
:102D00002FA13DA0FEF7D8FD04E02146304602F099
:102D1000E7FB18B1304602F061FD2EE0204602F0DC
:102D20005DFD34460CE03146204602F00BFF0028E2
:102D300006D0C72214A33AA12FA0FEF7BDFD1CE0C8
:102D400066683946204602F0E3F8B0B960680021B1
:102D50002A68FF27C2600A46D9F8103003610123B0
:102D600031707180077241812046CDE900133B46E6
:102D70002946CDF808A000F015FB2046BDE8FE4F1F
:102D800002F02CBDF43100202E2E2F4D6964646CAE
:102D90006577617265732F54686972645F50617200
:102DA00074792F4C7749502F7372632F636F72655C
:102DB0002F697076342F69636D702E6300000000F8
:102DC00069636D705F696E7075743A206D6F7669B6
:102DD0006E6720722D3E7061796C6F616420746F34
:102DE0002069636D70206865616465722066616941
:102DF0006C65640A00000000417373657274696F4A
:102E00006E2022257322206661696C6564206174DE
:102E1000206C696E6520256420696E2025730A0088
:102E200069636D705F696E7075743A207265737452
:102E30006F72696E67206F726967696E616C20706E
:102E40002D3E7061796C6F6164206661696C6564A8
:102E50000A0000002DE9FF479246894624210646D4
:102E600022204FF4207202F0B7F8050031D06889B3
:102E7000242806D218A34FF4B47225A12FA0FEF780
:102E80001BFD6C684FF0000877681C2284F80090E6
:102E900084F801A0A4F80480A4F80680686871682A
:102EA0000830FDF7F1F9F868039003A800F08AFCF8
:102EB00060B1A4F802800122CDF80080FF23CDE9A3
:102EC00001200021284603AA00F06CFA284602F0EF
:102ED00085FCBDE8FF8700002E2E2F4D6964646CD1
:102EE0006577617265732F54686972645F506172AF
:102EF00074792F4C7749502F7372632F636F72650B
:102F00002F697076342F69636D702E6300000000A6
:102F1000636865636B20746861742066697273749A
:102F200020706275662063616E20686F6C64206932
:102F3000636D70206D6573736167650041737365C0
:102F40007274696F6E2022257322206661696C6538
:102F500064206174206C696E6520256420696E2090
:102F600025730A000A460B21FFF774BF421C12D0DA
:102F700088B191F82D2092070BD54A68824208D07B
:102F800089680A4000EA0103934202D10143491CC7
:102F900001D0002070470120704700002DE9F74F55
:102FA00088B004460025AF1F09981426808C143879
:102FB000C11700EB5170C0F3CF000390606806901A
:102FC000017801F00F01052903D038460BB0BDE8A8
:102FD000F08F6189142907D25DA34FF43F726BA172
:102FE00071A0FEF769FCF0E7C08801F0EFF82189D5
:102FF000C0F30C02029200F40050143907901FFA3B
:1030000081F89EE003994FF6FF7000EAC100414647
:10301000404500D90846049014210E204FF4207238
:1030200001F0DAFF5FEA000A5ED0BAF80A0014285D
:1030300006D247A34FF4497265A15BA0FEF73CFCA2
:10304000DAF8040014220699FDF71EF9DAF80400F4
:10305000049F059035E06089811B8DB2B04206D295
:103060003BA340F22D3262A14FA0FEF725FCAF42F8
:1030700000D23D461DB3052001F02EFC5FEA000999
:103080002FD0606841224B4629463044CDE90005E7
:10309000002002F011F95FEA000B28D0204602F070
:1030A0000BFD57495046C9E90414594602F020F96E
:1030B000781B07043F0C06D024680026CBE7246861
:1030C0000026002FC7D1099871198EB2808C143850
:1030D000404510DB079800280298C0F30C000DD182
:1030E0000EE0504602F07AFB4FF0FF306EE74846A4
:1030F00000F0DCFBF5E70298C0F30C0040F4005050
:1031000001F064F801460598C1800498143080B23B
:1031100001F05CF8059900224880514605984281EB
:1031200009980A9A43699847504602F057FB049859
:10313000A8EB0002DDE902101FFA82F8014488B210
:103140000290B8F1000F7FF45DAF00203EE7000071
:103150002E2E2F4D6964646C6577617265732F54F0
:10316000686972645F50617274792F4C7749502F8F
:103170007372632F636F72652F697076342F697075
:10318000345F667261672E63000000006970345F0F
:103190006672616728293A207062756620746F6FC5
:1031A0002073686F72740000417373657274696F85
:1031B0006E2022257322206661696C65642061742B
:1031C000206C696E6520256420696E2025730A00D5
:1031D00074686973206E6565647320612070627520
:1031E0006620696E206F6E652070696563652100D9
:1031F000702D3E6C656E203E3D20706F666600004F
:10320000853E00082DE9F047456807460E46042133
:103210002878B1EB101F03D0384602F0DFFA77E0D0
:1032200000074FEA9068688800F0D0FF04463889AC
:10323000A04203D92146384602F0A4FB79894145D2
:10324000EAD33889A042E7D3B8F1140FE4D3DFF80A
:1032500020912969C9F81410C1F30312E9680E2AF4
:10326000C9F8101005D0304600F086F850B1344649
:1032700019E096F82D00C00702D070680028F6D13A
:10328000002410E099F8140000247F280BD039485E
:10329000046806E0B44203D0204600F06DF810B98F
:1032A0002468002CF6D1D9F810003146FFF75EFEF5
:1032B0000028B1D199F81000C0F303100E28ABD04C
:1032C000002CA9D0E88830F0C00005D0384600F0C6
:1032D00035F907001CD07D683846C9F80850C9E99F
:1032E000004629780907890EA9F80C10414602F01A
:1032F00029FC687A012818D0062811D011280AD094
:10330000D9F814004D462146FFF730FE90B11EE07B
:103310000020BDE8F0873146384607F097FE19E0F7
:103320003146384603F0BCFD14E031463846FFF71D
:103330009BFC0FE0287DC0F303100E2807D0414608
:10334000384602F007FB02213846FFF789FC384671
:1033500002F044FA0021C9F80010C9F80410C9F8B5
:103360000810A9F80C10C9F81010C9F81410CFE70C
:10337000F43100205C00002010B590F82D10C90732
:103380000CD0416851B1064A52698A4204D00146C4
:103390001046FFF7EBFD08B1012010BD002010BD65
:1033A000F4310020FEB5DDE90954089E1AB109B1D7
:1033B0000F6807B9211D0096CDE9015400F002F80D
:1033C000FEBD00002DE9F84FDDE90BA80546807B26
:1033D000DDF828B01F4601281646894606D02FA3DF
:1033E0004FF455723AA13DA0FEF766FA002E6FF039
:1033F000010436D01421284601F08AFD002833D17B
:1034000068896C68142806D224A34FF462723DA127
:1034100032A0FEF751FA2772452084F809A03168DE
:103420002161207084F801B0288900F0CFFE414F5F
:103430004FF0000A6080A4F806A0388800F0C6FEAD
:10344000A080B9F1000F388800F10100388005D064
:10345000D9F80000E060A4F80AA00CE03648006843
:10346000F8E76889142802D22046BDE8F88F68681A
:103470006E4600690090B8F8240040B12989814265
:1034800005D9324641462846FFF788FDEDE7D8F8D2
:1034900014304046324629469847E6E72E2E2F4DF7
:1034A0006964646C6577617265732F5468697264CE
:1034B0005F50617274792F4C7749502F7372632F6C
:1034C000636F72652F697076342F6970342E6300D4
:1034D000702D3E726566203D3D203100417373655D
:1034E0007274696F6E2022257322206661696C6593
:1034F00064206174206C696E6520256420696E20EB
:1035000025730A00636865636B20746861742066C4
:103510006972737420706275662063616E20686FD3
:103520006C64207374727563742069705F68647270
:1035300000000000C2000020D8BB00082DE9F05FA9
:1035400045688346287800F00F0005287DD1E8887B
:1035500000F03CFEC004070C688800F037FE2978B4
:103560000907890E814270D8401A1FFA80F8584620
:1035700001F05FFF6A4C0646208830440A2809D9CA
:103580003146284600F028FC00285ED020883044D0
:103590000A28E8D8A14664684FF0000A0CE0606988
:1035A000E968884207D1A0692969884203D1A089C6
:1035B000A988884203D02468002CF0D106E02CB101
:1035C000E88800F003FEC0041BD025E0042001F0D1
:1035D00083F904000AD13146284600F0FDFBB042D1
:1035E00033DB042001F078F90400CED02021FCF771
:1035F00072FE0F21E177D9F804102160C9F8044068
:1036000004E0E08900F0E2FDC00405D01422294660
:1036100004F10800FCF738FEA87940F340156D1C52
:1036200008D007EB080080B2B84264D34FF6EB71C4
:10363000884260D82A465946204600F07FF9411C4E
:1036400059D0B9F80020324400E065E0A9F8002024
:1036500035B1A27F07EB0801A18342F00102A277F6
:10366000012846D161681422A08B14304D6887B2BE
:1036700004F1080128462E68FCF706FE384600F0E3
:10368000A5FD01466980A5F806A0A5F80AA0656811
:1036900009E077681421304602F054FA3146284692
:1036A00001F026FE3E68002EF3D1D9F804104E46F4
:1036B0008C4205D1002105E00868A04202D00146F5
:1036C0000029F9D1204600F05DFA284601F0B1FE4C
:1036D00004463088A04206D212A340F29B2220A1C9
:1036E00026A0FEF7E9F83088001B30802846BDE8A8
:1036F000F09F0020FBE7606870B9D9F804008442AD
:1037000006D008A340F2AB2226A11CA0FEF7D4F8F5
:103710000021204600F036FA584602F05FF8E8E74C
:10372000C40000202E2E2F4D6964646C6577617291
:1037300065732F54686972645F50617274792F4C9D
:103740007749502F7372632F636F72652F6970769C
:10375000342F6970345F667261672E630000000069
:1037600069705F72656173735F70627566636F75B0
:103770006E74203E3D20636C656E0000417373657E
:103780007274696F6E2022257322206661696C65F0
:1037900064206174206C696E6520256420696E2048
:1037A00025730A006E6F74206669727374616C749D
:1037B000686F756768206A75737420656E717565CA
:1037C0007565640070B50146144813E090F82D202B
:1037D000D3070FD053070DD543685BB184680D68DC
:1037E000234005EA04069E4216D0920702D4C2681E
:1037F000954211D000680028E8D10948006850B10E
:1038000090F82D20D30706D0520704D5426812B194
:1038100009787F2900D1002070BD00005C000020E5
:10382000600000200149102200F002B8206800204A
:103830002DE9FC470A25006891468A4600226B461E
:1038400001AC9046009000201E78471CB6FBF5FCAA
:1038500005FB1C6CB6FBF5F60CF1300C1E7004F881
:1038600000C0002EF8B2EFD106E04A4502F1010295
:1038700009DA265C01F8016B461EF0B2F5D24A4522
:1038800002F1010202DB0020BDE8FC872E2008F1D6
:1038900001085B1C08F0FF08B8F1040F01F8010BE8
:1038A000D1D3002001F8010C5046EDE710B504001B
:1038B00006D106A34FF4317213A116A0FDF7FCFF49
:1038C0002146BDE81040052000F092BF2E2E2F4D5E
:1038D0006964646C6577617265732F54686972649A
:1038E0005F50617274792F4C7749502F7372632F38
:1038F000636F72652F697076342F6970345F6672FA
:1039000061672E63000000007020213D204E554C61
:103910004C000000417373657274696F6E2022253C
:103920007322206661696C6564206174206C696E25
:103930006520256420696E2025730A002DE9F05F5B
:103940004C68002593460F4606464FF001086088F4
:1039500000F03CFC21784FF0FF3A0907890E8142C4
:1039600031D8A0EB0109E08800F030FC7C68C1048C
:103970000020090C01EB0902206093B2A1808B4268
:10398000E38020D3726829E05068B0F804C0614534
:1039900015D222606DB1B5F806C0614513D3808899
:1039A000834210D82F60A088844506D04FF00008CD
:1039B00003E08088834206D877608AB12EE002D087
:1039C000C288914202D25046BDE8F09F25B1EA88F4
:1039D000624501D04FF0000802680546002AD3D1A5
:1039E00095B1E888A188884206D92AA34FF4DB72F2
:1039F00037A13FA0FDF760FF2F60E888A1888842CB
:103A00000CD04FF0000809E0706830B121A34FF4EA
:103A1000DF7241A136A0FDF74FFF7760BBF1000FC9
:103A200002D1B07FC007CFD0B8F1000F30D072689C
:103A3000002A2DD050688088002829D1206821468E
:103A400028B14468C888A1888842F7D020E0B8F13E
:103A5000000F1DD032B90FA340F2DF123CA124A009
:103A6000FDF72AFF70684068A04206D109A34FF411
:103A7000F07237A11EA0FDF71FFF206830B105A32B
:103A80004FF4F17236A11AA0FDF716FF01209BE753
:103A9000002099E72E2E2F4D6964646C6577617262
:103AA00065732F54686972645F50617274792F4C2A
:103AB0007749502F7372632F636F72652F69707629
:103AC000342F6970345F667261672E6300000000F6
:103AD000636865636B20667261676D656E747320E1
:103AE000646F6E2774206F7665726C6170000000E1
:103AF000417373657274696F6E202225732220668C
:103B000061696C6564206174206C696E6520256450
:103B100020696E2025730A006E6F207072657669C9
:103B20006F757320667261676D656E742C207468A2
:103B30006973206D757374206265207468652066F2
:103B40006972737420667261676D656E742100001E
:103B500073616E69747920636865636B00000000AF
:103B600076616C69646174655F64617461677261D8
:103B70006D3A6E6578745F70627566213D4E554C86
:103B80004C00000070B504460C480D464168A14247
:103B900002D1216841600AE0002D06D108A340F25D
:103BA000451216A11CA0FDF787FE2068286021465B
:103BB000BDE87040042000F01BBE0000C4000020DF
:103BC0002E2E2F4D6964646C6577617265732F5476
:103BD000686972645F50617274792F4C7749502F15
:103BE0007372632F636F72652F697076342F6970FB
:103BF000345F667261672E630000000073616E6956
:103C0000747920636865636B206C696E6B656420F2
:103C10006C69737400000000417373657274696F9E
:103C20006E2022257322206661696C6564206174B0
:103C3000206C696E6520256420696E2025730A005A
:103C40002DE9F04705460F46A9424FF0000405D183
:103C5000AB222EA33CA13FA0FDF72EFE002F08D0E3
:103C60003868A84205D0AD2228A344A139A0FDF7A9
:103C700023FE6E684FF480387068818800291AD15D
:103C800000681422686005F108017068FCF7FCFA0E
:103C900001213046FFF766F9304601F0CAFB404586
:103CA000044605D3BC2219A339A12AA0FDF704FEBE
:103CB000304601F093FD6E6812E07068B146066808
:103CC000484601F0B6FB0444444505D3CC220FA37B
:103CD0002FA120A0FDF7F0FDA4B2484601F07EFD23
:103CE000002EEAD139462846FFF74CFF304D288890
:103CF000A04205D2D22205A32EA116A0FDF7DCFD1D
:103D00002888001B28802046BDE8F0872E2E2F4DE6
:103D10006964646C6577617265732F546869726455
:103D20005F50617274792F4C7749502F7372632FF3
:103D3000636F72652F697076342F6970345F6672B5
:103D400061672E63000000007072657620213D20BF
:103D500069707200417373657274696F6E202225F9
:103D60007322206661696C6564206174206C696EE1
:103D70006520256420696E2025730A0070726576BF
:103D80002D3E6E657874203D3D2069707200000004
:103D900070627566735F6672656564202B20636C64
:103DA000656E203C3D203078666666660000000047
:103DB000C400002069705F72656173735F70627523
:103DC00066636F756E74203E3D2070627566735F2A
:103DD00066726565640000002DE9F0471D4F002400
:103DE000894606460022134611467868154622E0A9
:103DF000D0F814C0D6F80C80C4450BD1D0F818C048
:103E0000D6F81080C44505D1B0F80CC0B6F80480CF
:103E1000C44509D06D1C2AB190F81FC092F81F80CC
:103E2000C44501D802461946D0F800C0BCF1000FC5
:103E300000D0034660460028DAD11AB11046FFF7D9
:103E4000FFFE04444C4501DA012DCBDC2046BDE8E1
:103E5000F0870000C4000020094870B500254468C0
:103E60000BE0E07F20B1401EE0772546246804E0A7
:103E7000204624682946FFF7E3FE002CF1D170BDEF
:103E8000C400002010B5040006D108A340F2CE22E1
:103E900015A118A0FDF710FD606908B101F09EFCA6
:103EA0002046BDE81040FFF701BD00002E2E2F4D2B
:103EB0006964646C6577617265732F5468697264B4
:103EC0005F50617274792F4C7749502F7372632F52
:103ED000636F72652F697076342F6970345F667214
:103EE00061672E630000000070637220213D204E48
:103EF000554C4C00417373657274696F6E202225B6
:103F00007322206661696C6564206174206C696E3F
:103F10006520256420696E2025730A00FEB5394CA2
:103F20000122394905460020009093034FF0E10C2F
:103F3000CE1484E84E00208280278DF80400D1053D
:103F40008DF8057001AA8DF806C08DF808008DF86F
:103F500007008DF80900C4E90520C4E907012046DF
:103F6000FCF734FC28B995F82D0040F0040085F8E2
:103F70002D00264A042326492248FCF7A5FB244AA3
:103F8000042320488032A2F58071FCF763FB0621F0
:103F900085F82C10616940F2DC50097885F826100C
:103FA0006169497885F827106169897885F8281052
:103FB0006169C97885F829106169097985F82A103D
:103FC0006169497985F82B10A88495F82D0040F097
:103FD0000A0085F82D000B48FCF7A7FD09481D21B4
:103FE0006A46FCF75FFD00981D2140F00B02054872
:103FF0000092FCF7A7FE03481D216A46FCF752FD1C
:10400000FEBD00007831002000800240A819002089
:10401000580100202DE9F84F0020044600902E485A
:10402000FCF794FB10B10020BDE8F88F2A48818F7F
:10403000D0F840900904090C33D000204FF4C1722D
:1040400000F0CAFF009060B3234840F2F45B009D8B
:10405000D0F8308000276E8914E000BF6B68A4F2AE
:10406000F4504242D81909EB0401FCF70DF9D8F8D5
:104070000C003F1B0024AAF2F4568046D0F80890AA
:1040800007F2F45706EB040ADA45E7D86A6809EB49
:104090000401D0193246FCF7F7F82D683444002D9E
:1040A000D8D10D480022016B05E00B6843F00043B6
:1040B0000B60C968521C836B9342F6D80021816360
:1040C000006800F580504269120602D580224261E4
:1040D00081600098A8E70000783100202DE9F05FAA
:1040E00029484FF0000B0D465C46C66AD6F808A07A
:1040F00035E03068002811DB6F894FF000081DE0C3
:104100006B68A4F2F45042420AEB040003EB08018E
:10411000FCF7BAF8F6683068002802DA6FF007009A
:1041200024E0D6F808A0A8EB0401ABEB040001F2F0
:10413000F4580024A9F2F45700F2F45B40F2F45171
:1041400007EB04098945DBD86A680AEB040002EB37
:1041500008013A46FCF798F82D683C44BB44002D12
:10416000C7D109485946FCF764FD00200649096893
:1041700001F580514A69920603D520234B61002244
:104180004A60BDE8F09F00007831002010B5044679
:104190004068804701F0FCFE094A216852688B188C
:1041A0001A1AB2F1004F03D308440649224602E02E
:1041B000044922461846BDE8104001F04DBF0000FA
:1041C000AC0000208D41000800BA704740BA70472B
:1041D00010B500F0E9F800F059FB00F055FD06F0CD
:1041E00029FF02F051FEBDE8104001F0B1BFFCF71D
:1041F000E1FEFDF701FBFDF73FFAFDF76BFA06F074
:1042000085FDFDF7E9FAFCE72DE9F04100284DD0E6
:10421000810704D026A340F2732231A132E0394D48
:10422000A0F1080429688C4203D36A680C309042DC
:1042300004D91FA340F27F2233A123E02079002874
:1042400025D0601A86B2208801F072FE0746608889
:1042500001F06EFE218800224FF4C86399420DD808
:10426000618899420AD8B14202D00088B04205D193
:104270006868874210D07888B0420DD00CA340F215
:10428000952228A1BDE8F04133A0FDF715BB08A396
:104290004FF423723AA1F5E72271A868844200D254
:1042A000AC602046BDE8F04101F072BDBDE8F08190
:1042B0002E2E2F4D6964646C6577617265732F547F
:1042C000686972645F50617274792F4C7749502F1E
:1042D0007372632F636F72652F6D656D2E630000BF
:1042E0006D656D5F667265653A2073616E6974799C
:1042F00020636865636B20616C69676E6D656E74C1
:1043000000000000280000206D656D5F6672656525
:104310003A20696C6C6567616C206D656D6F7279B0
:10432000000000006D656D5F667265653A20696C1E
:104330006C6567616C206D656D6F72793A206E6F88
:104340006E2D6C696E6B65643A20646F75626C6586
:104350002066726565000000417373657274696F51
:104360006E2022257322206661696C656420617469
:10437000206C696E6520256420696E2025730A0013
:104380006D656D5F667265653A20696C6C65676125
:104390006C206D656D6F72793A20646F75626C6523
:1043A000206672656500000070B50B494FF4C86562
:1043B0000A4C002021F0030121600D804880087123
:1043C000284601F0B5FD606001210171058045803E
:1043D0002068A06070BD00000F320020280000207F
:1043E0002DE9F04700286FD0C41C4FF6FC710C403B
:1043F0000C2C4FF4C86901D20C2401E04C457CD848
:1044000084427AD34148C4F5C8678246018900884E
:10441000081A86B276E0304601F08AFD054600793A
:1044200000286CD12888801B0838A04267D32988CF
:1044300004F114004FF00108891B083981421DD393
:104440003019083087B24F4506D131A340F2873288
:104450003BA140A0FDF730FA384601F069FD00218C
:1044600001712A88028046802F8085F804800088A8
:10447000484505D001F05CFD478001E085F80480E7
:104480005646DAF80800854203D014E0008801F0AF
:104490004FFD017911B171688842F7D1B060716840
:1044A000884208D0007930B119A340F2B53233A167
:1044B00028A0FDF701FA716828190830884208D948
:1044C00013A340F2B93200E015E033A121A0FDF7BB
:1044D000F3F9A8070DD00EA340F2BB323AA11DA0FC
:1044E000FDF7EAF90AA340F2BD3243A119A0FDF796
:1044F000E3F905F10800BDE8F08705E0FFE7DAF829
:104500000000865BB74286D80020F4E72800002030
:104510002E2E2F4D6964646C6577617265732F541C
:10452000686972645F50617274792F4C7749502FBB
:104530007372632F636F72652F6D656D2E6300005C
:10454000696E76616C6964206E657874207074722F
:1045500000000000417373657274696F6E2022253C
:104560007322206661696C6564206174206C696ED9
:104570006520256420696E2025730A006D656D5FD6
:104580006D616C6C6F633A20216C667265652D3EBF
:1045900075736564000000006D656D5F6D616C6C26
:1045A0006F633A20616C6C6F6361746564206D6544
:1045B0006D6F7279206E6F742061626F7665207204
:1045C000616D5F656E642E006D656D5F6D616C6C15
:1045D0006F633A20616C6C6F6361746564206D6514
:1045E0006D6F72792070726F7065726C7920616C7A
:1045F00069676E65642E00006D656D5F6D616C6C42
:104600006F633A2073616E69747920636865636BC8
:1046100020616C69676E6D656E74000002490988DF
:10462000401A80B270470000280000202DE9F05F9A
:10463000CC1C06464FF6FC7004400C2C4FF4C86AA4
:1046400001D20C2401E054452AD88C4228D33E4F95
:104650003868864202D37868864206D33BA340F28C
:10466000D12246A14BA0FDF727F93868864249D3ED
:1046700079688E4246D2A6F10805BB46291A8FB248
:104680002888C01B08381FFA80F94C4506D92FA38B
:104690004FF4397249A13FA0FDF70EF94C4503D9FB
:1046A0004FF00000BDE8F09F2CD0288801F040FCBE
:1046B00080460079002827D004F11400484521D80D
:1046C00038192988083084B2514506D11FA340F219
:1046D000163242A12FA0FDF7EFF8204601F028FC8A
:1046E000DBF80820904201D2CBF8080000210171CC
:1046F0002988018047802C800088504502D001F035
:1047000017FC44803046CDE72888504506D10FA3DA
:1047100040F2F52231A11FA0FDF7CEF83819DBF8E1
:1047200008200830B8F8009084B2424504D12046F1
:1047300001F0FEFBCBF80800204601F0F9FB002158
:104740000171A0F80090D5E7280000202E2E2F4DF3
:104750006964646C6577617265732F54686972640B
:104760005F50617274792F4C7749502F7372632FA9
:10477000636F72652F6D656D2E6300006D656D5FF3
:104780007472696D3A206C6567616C206D656D6F40
:1047900072790000417373657274696F6E2022250F
:1047A0007322206661696C6564206174206C696E97
:1047B0006520256420696E2025730A006D656D5F94
:1047C0007472696D2063616E206F6E6C79207368FE
:1047D00072696E6B206D656D6F727900696E7661BE
:1047E0006C6964206E65787420707472000000003B
:1047F000092806D307A34FF4D57212A118A0FDF71C
:104800005BB8002904D0204A52F82000FDF73EBAD8
:10481000704700002E2E2F4D6964646C65776172BD
:1048200065732F54686972645F50617274792F4C9C
:104830007749502F7372632F636F72652F6D656DAB
:10484000702E63006D656D705F667265653A2074E9
:10485000797065203C204D454D505F4D415800001A
:10486000417373657274696F6E202225732220660E
:1048700061696C6564206174206C696E65202564D3
:1048800020696E2025730A0048BB000830B5064D2C
:104890005FF0000455F8240000F008F8641CA4B28E
:1048A000092CF7D330BD000048BB00088268002106
:1048B00011600A464168C91C21F0030107E08368C2
:1048C000521C1B680B608368196003881944438875
:1048D0009342F4DC7047000010B5092808D308A300
:1048E00040F2571212A11AA0FCF7E6FF002010BDFB
:1048F000214951F82000BDE81040FDF715BA00002D
:104900002E2E2F4D6964646C6577617265732F5428
:10491000686972645F50617274792F4C7749502FC7
:104920007372632F636F72652F6D656D702E6300F8
:104930006D656D705F6D616C6C6F633A207479703A
:1049400065203C204D454D505F4D41580000000012
:10495000417373657274696F6E202225732220661D
:1049600061696C6564206174206C696E65202564E2
:1049700020696E2025730A0048BB00082DE9F04726
:10498000DDE90978DDF820C0040003D03FB100293B
:104990000DD00DE035A340F2271241A103E033A36F
:1049A0004FF4947245A14EA0FCF786FF1BE05649D8
:1049B00002B9554A03B9544B00256560A5605448B7
:1049C000E560524E6061A58484F82D50C4E9075C0F
:1049D000307884F830002046C4F8108000F0BAF92E
:1049E0002046B84710B10020BDE8F087AA4640F243
:1049F0008B1840F28D1900BF94F83000FF2801D1C8
:104A000084F830A0002775681FE0A54205D117A3E0
:104A1000424640A132A0FCF74FFF7F1CFF2F05DD6F
:104A200012A34A4640A12EA0FCF746FF95F830009D
:104A300094F83010884207D1C8B2002D00F101006F
:104A400084F83000D8D102E02D68002DDDD194F833
:104A50003000FE2806D0401C307070682060204670
:104A60007460C1E786F800A0F7E700002E2E2F4DF6
:104A70006964646C6577617265732F5468697264E8
:104A80005F50617274792F4C7749502F7372632F86
:104A9000636F72652F6E657469662E630000000097
:104AA0006E657469665F6164643A20696E76616CF4
:104AB0006964206E65746966000000006E65746943
:104AC000665F6164643A204E6F20696E6974206687
:104AD000756E6374696F6E20676976656E0000009D
:104AE000417373657274696F6E202225732220668C
:104AF00061696C6564206174206C696E6520256451
:104B000020696E2025730A00D8BB000858000020D9
:104B10004D4D00086E6574696620616C7265616454
:104B20007920616464656400746F6F206D616E79D3
:104B3000206E65746966732C206D61782E20737504
:104B400070706F72746564206E756D626572206935
:104B5000732032353500000070B50C46054602F072
:104B6000F9FE21462846BDE8704006F0E9BB0A6818
:104B7000C3689A4204D001B90022C2600120704784
:104B800000207047F8B50C001546064606D113A361
:104B900040F2CB121EA122A0FCF78EFE35B90FA366
:104BA0004FF4E6721AA11EA0FCF786FE2168706819
:104BB000814210D00091694628602846FFF7CCFF5B
:104BC0003CB1206801217060304600F05FF80120A0
:104BD000F8BD0020F6E70020F8BD00002E2E2F4D76
:104BE0006964646C6577617265732F546869726477
:104BF0005F50617274792F4C7749502F7372632F15
:104C0000636F72652F6E657469662E630000000025
:104C1000696E76616C696420706F696E746572008C
:104C2000417373657274696F6E202225732220664A
:104C300061696C6564206174206C696E652025640F
:104C400020696E2025730A000A6883689A4204D09E
:104C500001B90022826001207047002070470000E7
:104C600001000CD00748406807E000BF90F83020F2
:104C7000521CD2B28A4203D000680028F6D100202C
:104C800070470000580000207047000070B5040015
:104C90000D4606D10DA340F26D3219A121A0FCF7FB
:104CA0000BFE94F82D0041070ED5C1070CD0E90783
:104CB0000AD06168002907D0000705D5211D2046CC
:104CC000BDE87040FDF768BD70BD00002E2E2F4D71
:104CD0006964646C6577617265732F546869726486
:104CE0005F50617274792F4C7749502F7372632F24
:104CF000636F72652F6E657469662E630000000035
:104D00006E657469665F69737375655F7265706FF0
:104D10007274733A20696E76616C6964206E657492
:104D200069660000417373657274696F6E20222595
:104D30007322206661696C6564206174206C696E01
:104D40006520256420696E2025730A006FF00B0032
:104D5000704700002DE9F84F4FF000091D460C0088
:104D600016468246C84600D1114C06B9104E05B908
:104D70000F4DACB1206898B100274A4631465046E5
:104D8000FFF762FF424629465046FFF7F0FE002F2C
:104D900004D16A4621465046FFF7F4FEBDE8F88F7D
:104DA00001276A4621465046FFF7ECFEE5E7000082
:104DB000D8BB0008014988607047000058000020F7
:104DC00058B190F82D10CA070ED001F0FE0180F8FE
:104DD0002D100A0708D5FCF7F9BF04A340F29B3257
:104DE0000FA117A0FCF768BD704700002E2E2F4DB5
:104DF0006964646C6577617265732F546869726465
:104E00005F50617274792F4C7749502F7372632F02
:104E1000636F72652F6E657469662E630000000013
:104E20006E657469665F7365745F646F776E3A2050
:104E3000696E76616C6964206E6574696600000055
:104E4000417373657274696F6E2022257322206628
:104E500061696C6564206174206C696E65202564ED
:104E600020696E2025730A00002800D0C1617047B8
:104E700050B190F82D10CA070DD141F0010180F812
:104E80002D100321FFF702BF03A34FF454720FA1AB
:104E900015A0FCF711BD70472E2E2F4D6964646C70
:104EA0006577617265732F54686972645F506172CF
:104EB00074792F4C7749502F7372632F636F72652B
:104EC0002F6E657469662E63000000006E6574695C
:104ED000665F7365745F75703A20696E76616C69A0
:104EE00064206E6574696600417373657274696FDE
:104EF0006E2022257322206661696C6564206174CE
:104F0000206C696E6520256420696E2025730A0077
:104F1000002200F001B8000070B5A8B1B1F5803FE3
:104F200026D2002918D004898BB214FA81F5ADB2CB
:104F30009D421DD3057B2D0610D5456800F110025A
:104F4000691A914214D30CE00AA340F2DF1215A1B2
:104F500017A0FCF7B1FC0BE0002070BD42B1426825
:104F6000511A45894160E2180281E9184181F3E74D
:104F7000012070BD2E2E2F4D6964646C65776172BF
:104F800065732F54686972645F50617274792F4C35
:104F90007749502F7372632F636F72652F7062753C
:104FA000662E63007020213D204E554C4C000000C1
:104FB000417373657274696F6E20222573222066B7
:104FC00061696C6564206174206C696E652025647C
:104FD00020696E2025730A002DE9FC5F012A9046A6
:104FE0000F46114605460FD041290DD0B1F5C17FBE
:104FF00011D0B2F5207F55D041A340F227124CA129
:1050000052A0FCF759FC5CE000200A46394600F04B
:10501000FBF8044672E00024A1460820FFF75CFC80
:10502000060035D005F1030B2BF00300C0F514701A
:10503000B84200D938463A46002182467019534694
:105040001330CDE9008120F00301304600F08CFCE4
:105050003079800706D02AA34FF4807245A13BA087
:10506000FCF72AFC9421B1EB9B0F06D124A34FF44B
:1050700081724CA135A0FCF71FFC8CB1C9F800600F
:10508000A7EB0A000025B14607043F0CC5D135E067
:10509000514901200870A4B1204600F09FFB10E0A8
:1050A0003446EDE7E81CF91C20F0030021F0030171
:1050B000084480B2814200F1100290B201D88142CE
:1050C00002D90020BDE8FC9FFFF78AF9041EF9D041
:1050D00000203B461A46CDE900806019133020F0CD
:1050E0000301204600F040FC2079800706D004A38D
:1050F0004FF4917239A115A0FCF7DEFB2046E1E7E1
:105100002E2E2F4D6964646C6577617265732F5420
:10511000686972645F50617274792F4C7749502FBF
:105120007372632F636F72652F706275662E6300F2
:10513000706275665F616C6C6F633A206572726F46
:105140006E656F75732074797065000041737365C7
:105150007274696F6E2022257322206661696C6506
:1051600064206174206C696E6520256420696E205E
:1051700025730A00706275665F616C6C6F633A201C
:105180007062756620712D3E7061796C6F6164206C
:1051900070726F7065726C7920616C69676E65649E
:1051A00000000000504255465F504F4F4C5F425543
:1051B0004653495A45206D757374206265206269B3
:1051C00067676572207468616E204D454D5F414C84
:1051D00049474E4D454E540064000020706275668C
:1051E0005F616C6C6F633A20706275662D3E706112
:1051F000796C6F61642070726F7065726C79206178
:105200006C69676E656400002DE9FC41412A144613
:105210000E46074608D0012C06D00CA34FF4A57209
:1052200016A11BA0FCF748FB0720FFF755FB050064
:105230004FF0000008D0CDE90040334639461A4609
:10524000284600F091FB2846BDE8FC812E2E2F4D0C
:105250006964646C6577617265732F546869726400
:105260005F50617274792F4C7749502F7372632F9E
:10527000636F72652F706275662E6300696E76616A
:105280006C696420706275665F74797065000000F7
:10529000417373657274696F6E20222573222066D4
:1052A00061696C6564206174206C696E6520256499
:1052B00020696E2025730A007CB51C46C01CDDE900
:1052C000063520F003004618AE4201D900207CBD0F
:1052D0000BB1184400E000200223CDE900230B4667
:1052E00001461A46204600F03FFB20467CBD0000E8
:1052F00070B50D4608B1002D08D1BDE8704014A36B
:1053000040F259321EA12CA0FCF7D6BA0446006820
:1053100020B12989228911442181F7E720896189F7
:1053200088420FD00AA340F262322DA122A0FCF7DE
:10533000C3FA206830B106A340F2633234A11EA044
:10534000FCF7BAFA2089298908442081256070BDBC
:105350002E2E2F4D6964646C6577617265732F54CE
:10536000686972645F50617274792F4C7749502F6D
:105370007372632F636F72652F706275662E6300A0
:10538000286820213D204E554C4C292026262028D7
:105390007420213D204E554C4C29202870726F6797
:1053A00072616D6D65722076696F6C6174657320D2
:1053B0004150492900000000417373657274696FA0
:1053C0006E2022257322206661696C6564206174F9
:1053D000206C696E6520256420696E2025730A00A3
:1053E000702D3E746F745F6C656E203D3D20702D96
:1053F0003E6C656E20286F66206C6173742070624D
:10540000756620696E20636861696E29000000007E
:10541000702D3E6E657874203D3D204E554C4C00FD
:1054200010B50C46FFF764FF2046BDE8104000F0C1
:1054300043BB002102E00068491C89B20028FAD170
:105440000846704770B5138915460A461946FFF796
:10545000C3FD04000CD0294600F042F830B105A38A
:1054600040F224520FA114A0FCF726FA204670BD8A
:10547000002070BD2E2E2F4D6964646C65776172BB
:1054800065732F54686972645F50617274792F4C30
:105490007749502F7372632F636F72652F70627537
:1054A000662E6300706275665F636F707920666157
:1054B000696C656400000000417373657274696F04
:1054C0006E2022257322206661696C6564206174F8
:1054D000206C696E6520256420696E2025730A00A2
:1054E0002DE9F0474FF000070C4605003E466FF0EF
:1054F0000F0904D01CB128892189884204D232A323
:1055000040F2C9323CA145E06FF0050A6989608923
:10551000C91B801B814201D3804600E08846616838
:105520006868424631443844FAF7AEFE6989474418
:105530004644B94206D224A340F2D9323AA140A04F
:10554000FCF7BAF96089B04206D21FA340F2DA3202
:1055500045A13BA0FCF7B0F96089B04201D82468AE
:1055600000266889B84202D12D68002765B1002C59
:1055700016D060892189884212D1206800280FD076
:1055800011A340F2E93215E0002C1BD00EA34FF41A
:1055900079723CA12AA0FCF78FF94846BDE8F08754
:1055A00075B16889298988420AD1286840B106A363
:1055B00040F2EE3237A122A0FCF77EF95046EDE72B
:1055C000002CA3D10020E9E72E2E2F4D6964646CD6
:1055D0006577617265732F54686972645F50617298
:1055E00074792F4C7749502F7372632F636F7265F4
:1055F0002F706275662E6300706275665F636F70F0
:10560000793A20746172676574206E6F74206269E4
:105610006720656E6F75676820746F20686F6C64B3
:1056200020736F75726365006F66667365745F746F
:105630006F203C3D20705F746F2D3E6C656E0000E6
:10564000417373657274696F6E2022257322206620
:1056500061696C6564206174206C696E65202564E5
:1056600020696E2025730A006F66667365745F6635
:10567000726F6D203C3D20705F66726F6D2D3E6CC9
:10568000656E0000705F746F20213D204E554C4CBC
:1056900000000000706275665F636F7079282920D2
:1056A000646F6573206E6F7420616C6C6F7720700F
:1056B00061636B6574207175657565732100000009
:1056C0002DE9F0474FF0000716468946B84620B14D
:1056D000B9F1000F06D004462CE019A340F20A42AB
:1056E00023A103E016A340F20B4229A131A0FCF74D
:1056F000E3F80020BDE8F0872BB16089984202D81A
:10570000181A83B215E06089C01A85B2B54200D973
:105710003546616809EB07002A461944FAF7B4FDDB
:1057200079190023721B08EB05001FFA80F88FB26D
:1057300096B224680EB1002CDED14046DAE70000B4
:105740002E2E2F4D6964646C6577617265732F54DA
:10575000686972645F50617274792F4C7749502F79
:105760007372632F636F72652F706275662E6300AC
:10577000706275665F636F70795F70617274696182
:105780006C3A20696E76616C69642062756600000F
:10579000706275665F636F70795F70617274696162
:1057A0006C3A20696E76616C696420646174617022
:1057B00074720000417373657274696F6E202225E4
:1057C0007322206661696C6564206174206C696E67
:1057D0006520256420696E2025730A0070B50400D9
:1057E00003D00025A07B48B10FE024A34FF437720B
:1057F0002EA131A0FCF760F8002070BD1FA340F27D
:10580000F12237A12CA0FCF757F8A07B401E10F026
:10581000FF00A07324D1617B207B2668890700F0FC
:105820000F000CD5206930B914A340F2FF2232A139
:1058300021A0FCF741F82169204688470BE00228A7
:1058400010D0012811D0A8B10CA340F20F3233A11F
:1058500019A0FCF731F805F101053400EDB2C1D112
:10586000284670BD0820214601E007202146FEF7AA
:10587000BFFFF0E72046FEF7C7FCECE72E2E2F4DCA
:105880006964646C6577617265732F5468697264CA
:105890005F50617274792F4C7749502F7372632F68
:1058A000636F72652F706275662E63007020213DF4
:1058B000204E554C4C000000417373657274696F43
:1058C0006E2022257322206661696C6564206174F4
:1058D000206C696E6520256420696E2025730A009E
:1058E000706275665F667265653A20702D3E7265FE
:1058F00066203E203000000070632D3E6375737497
:105900006F6D5F667265655F66756E6374696F6EF5
:1059100020213D204E554C4C00000000696E766100
:105920006C6964207062756620747970650000008F
:105930000649002008700648006804E0416F09B17C
:1059400001F084BAC0680028F8D1704764000020D4
:10595000800000200122AFF30080002902DA4942D2
:1059600000F0F0B8FFF7D8BA70B50024DDE90456AE
:105970004160012102814381467305738173046094
:10598000C47370BD2DE9F04104000D4606D121A37A
:105990004FF4CC722BA131A0FBF78EFF2089A842D7
:1059A00035D9401B40F2AF1786B20CE021892A1A84
:1059B00095B2881B208124682CB916A33A4631A1E0
:1059C00026A0FBF779FF6089A842EFD3207B000770
:1059D00015D16089A84212D0607B80070FD4A088BF
:1059E000001B284481B22046FEF720FE040006D1A9
:1059F00008A340F2BD1229A118A0FBF75DFF2068A3
:105A00006581258108B1FFF7E9FE00202060BDE82F
:105A1000F08100002E2E2F4D6964646C65776172F1
:105A200065732F54686972645F50617274792F4C8A
:105A30007749502F7372632F636F72652F70627591
:105A4000662E6300706275665F7265616C6C6F6371
:105A50003A207020213D204E554C4C004173736517
:105A60007274696F6E2022257322206661696C65ED
:105A700064206174206C696E6520256420696E2045
:105A800025730A00706275665F7265616C6C6F6386
:105A90003A207120213D204E554C4C006D656D5FC4
:105AA0007472696D2072657475726E656420712000
:105AB0003D3D204E554C4C0000280CD0817B491CAC
:105AC00011F0FF01817306D103A340F242320EA10F
:105AD00012A0FBF7F1BE70472E2E2F4D6964646C47
