:020000040800F2
:10000000886C00209D01000817170008B51500082E
:10001000151700086D030008C9170008000000004C
:100020000000000000000000000000001B17000896
:100030006F03000800000000191700081D170008D2
:10004000B7010008B7010008B7010008B7010008B0
:10005000B7010008B7010008B7010008B7010008A0
:10006000B7010008B7010008B7010008B701000890
:10007000B7010008B7010008B7010008B701000880
:10008000B7010008B7010008B7010008B701000870
:10009000B7010008B7010008B7010008B701000860
:1000A000B7010008B7010008B7010008B701000850
:1000B000B7010008B7010008B7010008B701000840
:1000C000B7010008B7010008B7010008B701000830
:1000D000B7010008B7010008B7010008B701000820
:1000E000B7010008B7010008B7010008B701000810
:1000F000B7010008B7010008B7010008B701000800
:10010000B7010008B7010008B7010008B7010008EF
:10011000B7010008B7010008B7010008B7010008DF
:10012000B7010008B7010008B7010008B7010008CF
:10013000B7010008B7010008B7010008B7010008BF
:10014000B7010008B7010008B7010008B7010008AF
:10015000B7010008B7010008B7010008B70100089F
:10016000B7010008B7010008B7010008B70100088F
:10017000B7010008B7010008B7010008000000003F
:10018000B7010008B7010008DFF80CD000F0DCF878
:10019000004800475F400008886C00200648804700
:1001A00006480047FEE7FEE7FEE7FEE7FEE7FEE75C
:1001B000FEE7FEE7FEE7FEE7B91700088901000841
:1001C0002DE9F05F0546002092469B46884606468C
:1001D000814640241BE0284641464746224600F01F
:1001E000A3F853465A46C01A914110D311461846F7
:1001F000224600F08AF82D1A67EB01084F46224686
:100200000120002100F081F817EB00094E41201E6B
:10021000A4F10104DFDC484631462A464346BDE8E6
:10022000F09F00000649074A0868504343F239022C
:10023000104408604008704701490860704700009A
:10024000D40000206D4EC64110B5431A934209D226
:100250008318881803E010F8011D03F8011D521ED1
:10026000F9D210BD40EA01039B0703D009E008C999
:10027000121F08C0042AFAD203E011F8013B00F86B
:10028000013B521EF9D210BDD2B201E000F8012BA1
:10029000491EFBD270470022F6E710B513460A4606
:1002A00004461946FFF7F0FF204610BD10B504467E
:1002B00004E00B7800F8013B03B1491C521EF8D250
:1002C000204610BD30B504460020034600E05B1C0C
:1002D000934203D2E05CCD5C401BF8D030BD30B51A
:1002E0000B46014600202022012409E021FA02F5F4
:1002F0009D4205D303FA02F5491B04FA02F528448E
:10030000151EA2F10102F1DC30BD202A04DB203AE7
:1003100000FA02F1002070479140C2F1200320FA58
:1003200003F3194390407047202A04DB203A21FA56
:1003300002F00021704721FA02F3D040C2F12002FE
:100340009140084319467047064C074D06E0E068A7
:1003500040F0010394E8070098471034AC42F6D30C
:10036000FFF716FF8CB90008ACB90008FEE770472C
:10037000064908B509684FF4FA52B1FBF2F141435E
:10038000009100BF491E0091FBD208BD2C00002047
:1003900038B50446006800F58050816941F4801149
:1003A0008161206800F58050806900900120FFF78E
:1003B000DFFF2068009900F58050816138BD0000A2
:1003C0002DE9F041044621B14FF40060E060C00027
:1003D000A060E0690025002861D0284623684026F7
:1003E00019683A4A1140D4E902273A43024342F4D9
:1003F00000700843186020680768012000F072F858
:10040000206807602068466020684668012000F088
:1004100069F820684660206885602068C5602168AA
:1004200088694FF64172104040F080008861206872
:100430008669012000F056F8206886612068C56151
:100440002068C569012000F04DF82068C561226868
:1004500002F5805290691E4908401E49014391618E
:10046000206800F580508569012000F03BF8206885
:1004700000F5805085612068174900F580500160C3
:10048000206800F580500568012000F02BF82068F6
:1004900000F580500560A069012803D009E04FF401
:1004A00080609BE7206800F58050C1690B4A1143CA
:1004B000C16160690A4982880A640278D0F8010043
:1004C00042EA00204864BDE8F08100000F8120FF6F
:1004D000233FDEF8040020028020C102400001001A
:1004E0000080024070B5044600F038FD0546601CEF
:1004F00002D004480078044400F030FD401BA042C4
:10050000FAD370BD200000202DE9F041054690F897
:1005100045000C46012875D0012685F8456002206B
:1005200085F84400002C70D02A68116841480140C9
:10053000D4E900031843D4E902373B431843AB68BE
:1005400018432369184363691843EB681843A36988
:100550001843E3691843236A1843636A1843A36A7C
:10056000184308431060286807680120FFF7BAFFA6
:1005700028680760D4E90B010843D4E90D12114340
:100580000843E16B0843216C0843616C0843A16C8C
:10059000084329684860286847680120FFF7A2FFE0
:1005A000286847602968E06C88602968206DC86009
:1005B0002A6891694FF641700140D4E91603184347
:1005C000B4F85470236E43EA07431843636E18432C
:1005D000A36E184308439061286887690120FFF7DC
:1005E00081FF28688761D4E91B0108432968C86135
:1005F0002868C4690120FFF775FF2868C46114E00A
:1006000000E002E00220BDE8F0812968086820F4DB
:100610009042D5E902031843104308602868046833
:100620000120FFF75FFF2868046005F8446F002091
:100630006870E8E70F8120FF2DE9F04390F845400E
:100640000025012C0DD04FF0010C80F845C002248C
:1006500080F8444044F2F4574FF000495E1E816236
:1006600017E00220BDE8F08301EB4514C4F80090C8
:10067000C5EBC51808EB480802EB8808C4E9017807
:10068000B54204D204F12008C4F80C8000E0E16017
:100690006D1C9D42E8D3026802F58052D16080F85B
:1006A00044C0002180F845100846DBE72DE9F043FF
:1006B000914690F845200024012A0AD0012680F8AE
:1006C0004560022280F844204FF4801C5D1EC16208
:1006D0001BE00220BDE8F08301EB4412C2F800C029
:1006E000C4EBC41707EB470809EB88079760C76995
:1006F0001FB9176847F440071760AC4203D202F1F4
:100700002007D76000E0D160641C9C42E4D30268FB
:1007100002F58052116180F84460002180F8451094
:100720000846D7E710B590F84510012913D00122EB
:1007300080F84520022180F84410816A0C6800236B
:10074000002C27DB0C68E40518D5846B641C8463DB
:10075000012C02D002E0022010BD016341630C684D
:10076000C4F30D44241FC463046BA4680464C96803
:1007700040F8281F02774377002010BD0C68A405BD
:1007800003D58263C0E90C1302E0846B641C8463AC
:10079000C968816200F8442F4370012010BD000039
:1007A0002DE9FC474FF000060400B146009603D047
:1007B00094F8440018B107E00120BDE8FC8784F8F4
:1007C0004560204600F0E2F86648016841F4804147
:1007D0000160006800F4804001906348016821F4E2
:1007E000000101600168226A11430160206800F580
:1007F0008050016841F00101016000F0AFFB054647
:100800004FF4FA7709E000BF00F0A8FB401BB842A4
:1008100003D9032004F8440F67E0206800F58050F6
:100820000068C007F0D12068006920F01C0500F0C6
:10083000C1FC4E494E4A0144914202D245F008059E
:1008400016E04C494C4A0144914202D245F00C0555
:100850000EE04A494A4A0144914209D349490844B1
:100860004949884202D245F0040501E045F01005EF
:10087000206805614FF400420021204600F03CFA58
:100880000125A8BBFF20FFF72DFE606888B300F0AC
:1008900065FB804641F288376A460121204600F018
:1008A000E1F800F05BFBA0EB0800B84217D8009815
:1008B0004007F1D54FF480520021204600F01CFA89
:1008C000B0B900F04BFB80466A460121204600F09B
:1008D000C9F800F043FBA0EB0800B8420AD9012197
:1008E0002046FFF76DFD04F8445F0320667064E75F
:1008F00024E018E000988006E6D56A4610212046DC
:1009000000F0B0F8D0B90098410703D54FF400616A
:10091000E16000E0E660800701D5A66019E04FF4D1
:100920008040A06015E0E068A168C00840EA51007E
:1009300082B20021204600F0DFF930B101212046CB
:10094000FFF73EFD84F8445036E740F6FF70FFF7AE
:10095000C9FD49462046FFF733FD84F84450002086
:100960002BE70000443802400438014000D3CEFE9B
:10097000C0E1E40040F1E9FD40787D0100796CFCC4
:10098000005A6202001F0AFA80F0FA02F0B587B03E
:10099000044614216846FFF77EFC2D4920688842F2
:1009A00053D12C480024016841F0007101600168B6
:1009B00001F000710591016841F0806101600168FA
:1009C00001F080610591016841F0006101600168FA
:1009D00001F000610591016841F0040101600168C6
:1009E00001F004010591016841F001010160016815
:1009F00001F001010591016841F002010160006808
:100A0000022500F0020005903220CDE9000502AA7F
:100A100003260B2782E8D00069460F4800F0A8F9AA
:100A20008620CDE9000502AA694682E8D0000B487D
:100A300000F09EF94FF46050CDE9000502AA694626
:100A400082E8D000064800F093F907B0F0BD00003E
:100A5000008002403038024000080240000002409E
:100A6000000402402DE9F047044690F84400914606
:100A700082281DD0822084F84400226810694FF635
:100A8000FF7500F01C03208A05EAC02018434FF4CC
:100A9000F86303EA8111014321F0020040F00105EF
:100AA000156100F05BFA064601274FF4803810E02C
:100AB0000220BDE8F08700BF00F050FA801B4045DF
:100AC00005D304F8447F002060700320F1E720681C
:100AD0000569E807F0D12068406981B2C9F80010C3
:100AE00084F844700020E4E7F8B5044690F8450027
:100AF000012839D0012584F84550022084F84400AB
:100B000020680026016841F0080101602068006843
:100B100000902846FFF72CFC2168009808602068A8
:100B2000016841F004010160206800680090012024
:100B3000FFF71EFC2168009808602046FFF728FC9C
:100B4000206800F58050816941F40051816120687E
:100B500000F58050816941F00201816184F84450C0
:100B600084F845600020F8BD0220F8BDF8B50446C1
:100B700090F84500012839D0012584F8455002201D
:100B800084F84400206800F58050816921F4005108
:100B90008161206800F58050816921F00201816146
:100BA00020680026016821F00401016020680068C7
:100BB00000900120FFF7DCFB2168009808602046C8
:100BC000FFF7E6FB2068016821F00801016020685A
:100BD000006800900120FFF7CBFB216800980860B7
:100BE00084F8445084F845600020F8BD0220F8BD28
:100BF000F0B590F845200023012A11D0012780F894
:100C00004570022280F84420002459B1C66A326837
:100C1000002A0ADA122100F8441F44700120F0BDB6
:100C20000220F0BD00F8447FF7E740F2F455A942F6
:100C30000BD9B1FBF5FCB1FBF5F205FB1C1CBCF1BB
:100C4000000F00D0521C012A43D1326842F04052BA
:100C50003260C26AC1F30C015160C16A0A6842F095
:100C600000420A60C16AC968C16234E0D6F800C0B7
:100C70002CF0405CC6F800C033B9C66AD6F800C094
:100C80004CF0805CC6F800C0C66A7560561EB34260
:100C900014D1C66AD6F800C04CF0005CC6F800C09B
:100CA000C2F10106C6EBC61606EB4606D0F82CC00C
:100CB00001EB8606C6F30C06CCF80460C66AD6F8CB
:100CC00000C04CF0004CC6F800C0C66A5B1CF66859
:100CD000C6629342CAD3016801F580514A6952073E
:100CE00005D504224A61016801F580514C6000F885
:100CF000447F44700020F0BD2DE9F041044690F897
:100D0000440042281ED0422084F844002368186919
:100D10004FF6FF7600F01C05208A06EAC020284323
:100D20004FF4F86505EA8111014390B241F00305E3
:100D300058612068056100F011F9064601274FF45B
:100D4000803810E00220BDE8F08100BF00F006F915
:100D5000801B404505D304F8447F002060700320C9
:100D6000F1E720680569E807F0D184F84470EAE704
:100D70002DE9F84FDFF8B8A1002201250AF1040B94
:100D800003264FF00F090BF1040E00BF0B6805FAA4
:100D900002F42340A3426FD10F7907F00307012F1C
:100DA00001D0022F16D187684FEA420806FA08FCE4
:100DB00027EA0C07D1F80CC00CFA08FC4CEA070C27
:100DC000C0F808C04768A7430C79C4F300149440E6
:100DD0003C4344600C79E443A4070AD0C4684FEA5A
:100DE000420C06FA0CF7BC438F6807FA0CF727434E
:100DF000C7600C7904F00304022C12D1D40800EB74
:100E0000840CDCF820405707FF0E09FA07F824EAA3
:100E10000804D1F8108008FA07F848EA0408CCF86A
:100E2000208004684FEA420C06FA0CF7BC430F79A5
:100E300007F0030707FA0CF7274307604C68E40044
:100E400070D53C4C276847F480472760246822F01F
:100E5000030704F480440094374C07EB040CDCF8DF
:100E6000084897074FEA177809FA08F7BC43334F49
:100E7000B84202D1002724E054E0314FB84201D1FA
:100E800001271EE02F4FB84201D1022719E02E4F53
:100E9000B84201D1032714E02C4FB84201D10427F6
:100EA0000FE02B4FB84201D105270AE0294FB84285
:100EB00001D1062705E0284FB84201D1072700E0FD
:100EC000082707FA08F72743CCF80878DAF8004033
:100ED0005746D1F804C09C435FEACC3C00D51C4384
:100EE0003C60DBF800405F46D1F804C09C435FEAF9
:100EF0008C3C00D51C433C60DEF800407746D1F8BE
:100F000004C09C435FEACC2C00D51C433C60084FD6
:100F10000C373C68D1F804C09C435FEA8C2C00D5A8
:100F20001C433C60521C102AFFF430AFBDE8F88F20
:100F3000003C0140443802400030014000000240C3
:100F40000004024000080240000C02400010024071
:100F50000014024000180240001C02400148806852
:100F60007047000020000020024881680278114488
:100F700081607047200000200B4810B5016841F4E3
:100F800000710160016841F480610160016841F411
:100F900080710160032000F061F8002000F006F885
:100FA00000F024F8002010BD003C024070B50D4D4B
:100FB00004464FF47A712878B1FBF0F00A490968C9
:100FC000B1FBF0F000F0E2FA48B9102C07D2002291
:100FD0002146501E00F022F800206C6070BD0120F8
:100FE00070BD0000200000202C0000200A4808B539
:100FF000016841F480410160006800F48040009085
:101000000548001F016841F080510160006800F050
:101010008050009008BD000044380240F0B40E4BF0
:101020001B680C46C3F30223C3F10705042D00D946
:101030000425191D072901D2002300E0DB1E01262B
:1010400006FA05F1491E214099409E40761E164041
:101050003143F0BC00F0DEBB0CED00E0064900F0CF
:10106000070208684FF6FF03184040EA0220034ACF
:1010700010430860704700000CED00E00000FA0526
:101080002DE9F0470E46050065D0DFF81481D8F849
:101090000000F7B200F00700B04207D288F80070F5
:1010A000D8F8000000F00700B04254D128683D4C49
:1010B000810712D5400703D5206840F4E050206036
:1010C0002878000703D5206840F46040206020683D
:1010D000A96820F0F000084320602878C0072DD0D0
:1010E000304968680839012812D0022813D0032833
:1010F00011D00968890700292DDA216821F0030140
:1011000001432160FFF72AFF814641F2883A0EE051
:1011100009688903EFE709688901ECE7FFF71EFF1B
:10112000A0EB0901514502D90320BDE8F0872068F2
:10113000696800F00C00B0EB810FEFD1D8F8001017
:10114000404601F00701B14207D90770006800F07E
:101150000700B04201D00120E7E72878400705D515
:101160002068E96820F4E0500843206028780007F0
:1011700006D52068296920F4604040EAC10020605B
:1011800000F01EF82168084AC1F30311515CC84001
:101190000649086006480068FFF708FF0020C4E71A
:1011A000003C0240083802405CB700082C000020D8
:1011B0002400002001480068704700002C00002037
:1011C000154810B5006810F00C02144813D04110F7
:1011D000042A0FD0082A0ED10F4C241F226823683E
:1011E00002F03F025B0207D52068C0F38810A0FB25
:1011F000010106E0084610BD2168C1F38811A1FB7A
:1012000000010023FEF7DCFF2168C1F30141491C06
:101210004900B0FBF1F010BD083802400024F40092
:101220002DE9F84F04006ED02078DFF84C93C0070A
:10123000A9F104054AD009F104000168C1F3810154
:10124000012908D00068C0F3810002280AD1D9F82A
:101250000000400206D52868800337D56068002862
:10126000E1D033E06068B0F5803F10D0B0F5A02F3A
:10127000286810D020F480302860286820F480206E
:1012800028606068A8B1FFF769FE06460DE028688F
:1012900040F48030F4E740F480202860F7E700BF96
:1012A000FFF75CFE801B642873D828688003F7D59D
:1012B0000CE0FFF753FE064605E000BFFFF74EFEC9
:1012C000801B6428F0D828688003F7D42078DFF8E2
:1012D000AC8280074FF0000A3ED5A748001D016888
:1012E00011F00C0F08D00068C0F3810002280BD168
:1012F000D9F80000400207D42868800716D5E068B6
:10130000012800D112E033E1E068B8B10120C8F84B
:101310000000FFF723FE064605E000BFFFF71EFEB4
:10132000801B0228C0D828688007F7D52868216963
:1013300020F0F80040EAC10028600DE0C8F800A0E5
:10134000FFF70CFE064604E0FFF708FE801B0228AC
:101350001FD828688007F7D42078000722D5864F49
:1013600087486169703771B101210160FFF7F6FDAF
:10137000064604E0FFF7F2FD801B022809D8386812
:101380008007F7D50EE0C0F800A0FFF7E7FD06469E
:1013900005E082E0FFF7E2FD801B02287DD8386877
:1013A0008007F7D42078400768D5DFF8CCB1002754
:1013B0000BF13C0BDBF80000C0000BD4DBF8001095
:1013C00041F08051CBF80010DBF80000012700F05D
:1013D000805000906B4E3068C00510D4306840F4E7
:1013E00080703060FFF7BAFD009005E0FFF7B6FDB2
:1013F0000099401A022850D83068C005F6D55E4ED4
:10140000A0686C3601280FD00528306810D020F075
:1014100001003060306820F004003060A068B8B18E
:10142000FFF79CFD00900FE0306840F00100F4E70A
:1014300040F004003060F7E7FFF790FD0099411A93
:1014400041F28830814266D830688007F4D50EE0DA
:10145000FFF784FD009007E0FFF780FD0099411A37
:1014600041F28830814256D830688007F4D42FB1D9
:10147000DBF8001021F08051CBF80010A069C8B350
:101480003D49091D0968C1F3810102294AD002289A
:10149000504607D0C8F8600000E03CE0FFF75EFD72
:1014A00004463BE04746C8F86000FFF757FD064694
:1014B00005E000BFFFF752FD801B02282BD82868EB
:1014C0008001F7D4D4E907010843A16A2E4A4908EC
:1014D00002EB0141626A41EA8211084394F82C1040
:1014E00040EA0161C9F8001001203866FFF736FDB7
:1014F000044606E03EE000BFFFF730FD001B022877
:1015000009D828688001F7D534E000BFFFF726FD31
:10151000001B022802D90320BDE8F88F286880014B
:10152000F4D427E00128F7D0D9F80000E26900F4EC
:10153000800191421CD1226A00F03F01914217D1F3
:1015400047F6C071626A0140B1EB821F10D1A26AF6
:101550004FF0FF3300F4403103EB5202B1EB024F86
:1015600006D194F82C1000F07060B0EB016F01D040
:101570000120D1E70020CFE70438024000004742B5
:10158000800E4742007000400000FFFF10B5401E73
:10159000B0F1807F01D3012010BD4FF0E0246061E5
:1015A0000F21601700F036F90020A06107202061AC
:1015B000002010BDFEE70000114808B5016841F0A9
:1015C00080010160016801F080010091016841F033
:1015D00004010160016801F004010091016841F01B
:1015E00001010160016801F001010091016841F011
:1015F00002010160006800F00200009008BD0000D8
:1016000030380240FEB5394CC023A82223706270E6
:101610000120A0703621E170251DFF21297069701D
:10162000A97000272E1DEF7033707270B070F070CB
:1016300002F006FD2068E17803BA0A0603F47F434E
:1016400042EA032203BA00BA03F47F03084342EAE2
:101650001322A4F10C0142EA106008602868E978BE
:1016600003BA0A0603F47F4342EA032203BA00BA2C
:1016700003F47F03084342EA1322A4F1080142EA7B
:10168000106008603068F17803BA0A0603F47F43FB
:1016900042EA032203BA03F47F0300BA42EA1322A8
:1016A000084342EA1060211F231F086010481149B7
:1016B0000097CDE901101A1F111F0F4803F096F88B
:1016C0000D4803F0ADFA0C4890F82D0040070A4889
:1016D00002D503F003FB01E003F0A8FA03B00749C9
:1016E000BDE8F040044803F0F5BA00000C0000200B
:1016F00059280008F5290008DC000020A12A00086C
:1017000010B5034801F0BAF9BDE8104004F04ABB37
:10171000DC000020FEE7FEE770477047FFF724BCBF
:1017200030B593B030216846FEF7B5FD14210CA802
:10173000FEF7B1FD1E480025016841F080510160AF
:10174000006800F0805011901A48016841F480410F
:1017500001600068022400F4804011900120009094
:10176000000401908001CDE90640082008904FF464
:10177000A870CDE9090407200B906846FFF750FDDB
:1017800008B172B6FEE70CA90F2081E831004FF4D2
:10179000A0500F904FF48050109005210CA8FFF737
:1017A0006FFC002801D072B6FEE713B030BD000018
:1017B00040380240007000400248016841F4700166
:1017C0000160704788ED00E0FEE700000FB4054BB4
:1017D00010B503A9044A029800F03CF810BC5DF86B
:1017E00014FB0000512B0008D80000200FB4084B58
:1017F00010B504A902AA039800F02CF8044602A927
:10180000002000F0C8F9204610BC5DF814FB000071
:10181000971B00080907090E002804DB00F1E020EF
:1018200080F80014704700F00F0000F1E02080F80D
:10183000141D704702E008C8121F08C1002AFAD11F
:1018400070477047002001E001C1121F002AFBD140
:10185000704700002DE9FF4F8BB0884605460026F3
:1018600006E025280BD0DDE90D1290476D1C761C93
:1018700028780028F5D10FB03046BDE8F08F00245D
:10188000A146A2460122AE4900E0044315F8013FFB
:10189000203B02FA03F00842F7D128782A2810D01A
:1018A0006FF02F022878A0F13001092915D809EB33
:1018B000890102EB410144F0020400EB01096D1CB7
:1018C000F0E758F8041B5FEA010903D544F400541B
:1018D000C9F1000944F002046D1C28782E2817D1A4
:1018E00015F8010F44F004042A280ED06FF02F02DF
:1018F0002878A0F1300109290AD80AEB8A0102EB05
:10190000410100EB010A6D1CF2E758F804AB6D1CB5
:1019100028786C280FD006DC4C2817D068280DD00A
:101920006A2814D104E0742810D07A280FD10DE071
:1019300044F400140AE044F4801401E044F4401438
:101940006978814202D104F580146D1C6D1C2878E1
:10195000692865D006DC00288DD0632827D064284C
:1019600006D15DE06E2808D073282AD0752877D07C
:10197000DDE90D129047761CE0E0C4F30250022826
:1019800009D003280DD0D8F8001004280DD00E601F
:1019900008F10408D2E0D8F80010F217C1E900629B
:1019A000F6E7D8F800100E80F2E70E70F0E718F8AE
:1019B000041B8DF8001000208DF80100EB4601207B
:1019C00003E058F804BB4FF0FF3061074FF0000709
:1019D00001D40AE07F1C57450DDA8742FADB1BF879
:1019E00007100029F6D106E07F1C8742FCDB1BF8BC
:1019F00007100029F8D1DDE90D23A9EB0700814686
:101A0000214600F0B1F83044C61904E0DDE90D12BA
:101A10001BF8010B90477F1EF8D22146484688E00C
:101A200058F8040BC4F302514FF00A0B032900D1FC
:101A300000B2042900D140B2002802DA40422D2130
:101A400002E0210505D52B218DF82410012104E0A9
:101A500006E0E10710D02021F6E708AF089113E077
:101A600058F8040BC4F302514FF00A0B032900D1BC
:101A700080B2042900D1C0B20021EEE75946FEF73A
:101A80002EFC303107F8011D0028F7D1ADEB07001F
:101A900000F1200B600702D524F4803401E04FF000
:101AA000010ADA4502DDAAEB0B0000E000208246C5
:101AB00000EB0B0108980144A9EB01000A90E00338
:101AC00006D4DDE90D2321460A9800F04DF80644BE
:101AD0004FF0000908E009A911F80900DDE90D122D
:101AE000904709F10109761C08998945F3DBE00369
:101AF0000CD5DDE90D2321460A9800F035F806449F
:101B000004E0DDE90D1230209047761CBAF10001A7
:101B1000AAF1010AF5DC05E0DDE90D1217F8010B69
:101B20009047761CBBF10001ABF1010BF4DC0A9885
:101B30002146DDE90D2300F005F806446D1C97E60B
:101B4000092801002DE9F041044600251E461746EC
:101B5000880404D405E039462020B0476D1C641E7B
:101B6000F9D52846BDE8F0812DE9F041044600256D
:101B70001E469046C80301D5302700E02027880480
:101B800004D505E041463846B0476D1C641EF9D5C2
:101B90002846BDE8F0810A68531C0B60107070473E
:101BA00070B505460C46880706D006A34FF4B672FA
:101BB00010A118A0FFF70AFEA86800682060A868B6
:101BC000046070BD2E2E2F4D6964646C6577617260
:101BD00065732F54686972645F50617274792F4C19
:101BE0007749502F7372632F636F72652F6D656D28
:101BF000702E63006D656D705F667265653A206D6D
:101C0000656D2070726F7065726C7920616C6967A8
:101C10006E656400417373657274696F6E2022256E
:101C20007322206661696C6564206174206C696E42
:101C30006520256420696E2025730A0010B5806830
:101C40000468002C0CD021680160A00706D005A311
:101C50004FF48C720FA118A0FFF7B8FD204610BDFD
:101C6000002010BD2E2E2F4D6964646C6577617263
:101C700065732F54686972645F50617274792F4C78
:101C80007749502F7372632F636F72652F6D656D87
:101C9000702E63006D656D705F6D616C6C6F633A83
:101CA000206D656D702070726F7065726C79206147
:101CB0006C69676E65640000417373657274696F67
:101CC0006E2022257322206661696C656420617430
:101CD000206C696E6520256420696E2025730A00DA
:101CE00070B5094D0646002404EB440005EBC00026
:101CF000017D29B18068B04202D1204600F036F95A
:101D0000641C0A2CF0DB70BD986700202DE9F74FAA
:101D100084B04FF00A0B00240646DA465F46D946E7
:101D200002940194CDF80040514904EB440001EBCA
:101D3000C008039098F814500A2F1DD0002D2AD007
:101D4000012D08D0022D06D24AA340F2231257A13A
:101D500066A0FFF73BFD9EB13168D8F804008142D0
:101D60000ED1069820B1D8F808100698814207D104
:101D7000204607B0BDE8F08F002DE1D127460AE0EC
:101D8000012D16D0022D06D3B8F812000099884212
:101D900001D3A2460090641C24B20A2CC4DB05982F
:101DA00081074FF0FF30E4D40A2F16D018DA3C46F2
:101DB0003EE02F49039851F830000028B8F812008F
:101DC00005D002998842E6D3A1460290E3E7019943
:101DD0008842E0D3A3460190DDE70599C907C8D042
:101DE0005146BAF10A0F0EDA0C46214801EB4401C4
:101DF00050F8310080B11FA340F26D1245A13BA005
:101E0000FFF7E4FC08E05946BBF10A0F03DB494643
:101E1000B9F10A0FADDA0C460A2C06DB15A340F225
:101E20007F1242A131A0FFF7D1FC204600F09EF8BE
:101E30000A2C06DB0FA340F283123CA12BA0FFF774
:101E4000C5FC0B4804EB440100EBC105287D30B113
:101E500008A34FF4C2723AA124A0FFF7B7FC0EB159
:101E600030686860002068820698A86080E70000FB
:101E7000986700202E2E2F4D6964646C657761721F
:101E800065732F54686972645F50617274792F4C66
:101E90007749502F7372632F636F72652F69707665
:101EA000342F6574686172702E63000073746174FE
:101EB00065203D3D204554484152505F53544154A4
:101EC000455F50454E44494E47207C7C20737461E9
:101ED0007465203E3D204554484152505F53544163
:101EE00054455F535441424C4500000041737365B3
:101EF0007274696F6E2022257322206661696C6599
:101F000064206174206C696E6520256420696E20F0
:101F100025730A006172705F7461626C655B695D54
:101F20002E71203D3D204E554C4C000069203C2038
:101F30004152505F5441424C455F53495A4500005D
:101F40006172705F7461626C655B695D2E73746150
:101F50007465203D3D204554484152505F535441E3
:101F600054455F454D5054590000000070B5074C72
:101F700000EB4005002654F8350018B103F064FB6F
:101F800044F8356004EBC500067570BD9867002005
:101F90002DE9F04385B00D00074609D07C684FF469
:101FA00080782088404539D12079062836D109E04B
:101FB0001CA340F28A2229A12CA0FFF707FC05B040
:101FC000BDE8F0836079042828D16088082825D1ED
:101FD000D4F80E000490A169686820B1814202D152
:101FE0000126334601E00026022304F1080291464F
:101FF00004A9284600F0A2FBE08840450ED16EB14E
:10200000022204ABCDE90232291DCDE9001905F108
:10201000260319464A46284600F090FA384603F04F
:1020200013FBCCE72E2E2F4D6964646C65776172CB
:1020300065732F54686972645F50617274792F4CB4
:102040007749502F7372632F636F72652F697076B3
:10205000342F6574686172702E6300006E65746958
:102060006620213D204E554C4C00000041737365A5
:102070007274696F6E2022257322206661696C6517
:1020800064206174206C696E6520256420696E206F
:1020900025730A00FEB515460E46040006D143A37B
:1020A00040F21E324FA153A0FFF790FB36B93FA379
:1020B00040F21F3259A14FA0FFF788FB35B93BA36F
:1020C0004FF4487258A14BA0FFF780FB21462868C7
:1020D00000F0CCFE08B1584B3FE02868C0F3031174
:1020E0000E2925D0A168636800EA01020B409A42DC
:1020F00008D080B2A0F57E41A93903D0E068B0B322
:1021000004F10C054D4B4E481A7802EB420100EBEE
:10211000C1010F7D022F2ED38F68A7422BD12F68CC
:1021200049688F4227D13146204600F08BF8FEBD2A
:1021300001208DF8040000208DF805005E208DF848
:102140000600687801AB00F07F008DF80700A878E2
:102150008DF80800E8788DF809004FF400600090D1
:1021600004F126023146204600F0C8FBFEBDFFE721
:102170006FF00300FAE7002202EB420100EBC1011D
:102180000F7D022F08D38F68A74205D12F684968B9
:102190008F4201D11A70C6E7521CD2B20A2AEBD381
:1021A00032462946204600F0D5F8DFE72E2E2F4D87
:1021B0006964646C6577617265732F5468697264D1
:1021C0005F50617274792F4C7749502F7372632F6F
:1021D000636F72652F697076342F657468617270F1
:1021E0002E6300006E6574696620213D204E554CBB
:1021F0004C000000417373657274696F6E20222574
:102200007322206661696C6564206174206C696E5C
:102210006520256420696E2025730A007120213D08
:10222000204E554C4C00000069706164647220219E
:102230003D204E554C4C00006CB70008C8000020F3
:10224000986700202DE9F8430646154688461C4845
:1022500002EB450100EBC104207D022806D219A340
:1022600040F2EE2225A131A0FFF7B0FA144A05EBA7
:102270004501207D02EBC1050C35022813D1608A8F
:102280000327B0F58E7F04D9211D304600F010FAE7
:1022900007E0B0F5877F06D32A46211D304600F0BF
:1022A0000DFA00B927754FF4006000902B4606F137
:1022B00026024146304600F021FBBDE8F8830000CD
:1022C000986700202E2E2F4D6964646C65776172CB
:1022D00065732F54686972645F50617274792F4C12
:1022E0007749502F7372632F636F72652F69707611
:1022F000342F6574686172702E6300006172705FC4
:102300007461626C655B6172705F6964785D2E7385
:1023100074617465203E3D204554484152505F53DE
:10232000544154455F535441424C450041737365D9
:102330007274696F6E2022257322206661696C6554
:1023400064206174206C696E6520256420696E20AC
:1023500025730A002DE9FC5F8246263001900E4667
:10236000086814464FF0FF374FF0000B514600F05D
:102370007DFD80B93068C0F303110E290BD056B132
:1023800048B1524601213046FFF7C0FC050005D593
:1023900040B2BDE8FC9F6FF00F00FAE77F2D06D337
:1023A00037A340F2C13244A147A0FFF70FFA05F06E
:1023B000FF094F4909EB490801EBC805287D0028B2
:1023C0000ED0012808D0022806D22DA340F2CD322B
:1023D00048A13DA0FFF7FAF9BBF1000F06D104E0D8
:1023E00001202875C5F808A000E034B931465046F0
:1023F00000F05EF90746002CCBD0287D3C4E022829
:102400000ED346494FF4006005F10C0381F80090AB
:10241000009021465046019A00F070FA07462DE0E0
:1024200001282BD1254640F2F13768892989884255
:1024300007D1286828B112A33A4639A122A0FFF794
:10244000C5F9287B400607D522464FF420710E209F
:1024500002F030FF044605E02D68002DE5D120464E
:1024600003F060FA44B156F8380008B103F0ECF814
:1024700046F83840002701E04FF0FF37384688E73C
:102480002E2E2F4D6964646C6577617265732F54CD
:10249000686972645F50617274792F4C7749502F6C
:1024A0007372632F636F72652F697076342F657452
:1024B000686172702E63000074797065206F7665B4
:1024C00072666C6F77000000417373657274696F98
:1024D0006E2022257322206661696C656420617418
:1024E000206C696E6520256420696E2025730A00C2
:1024F000986700206172705F7461626C655B695DF2
:102500002E7374617465203D3D2050454E44494E04
:1025100047206F7220535441424C4500C8000020B0
:102520006E6F207061636B6574207175657565737E
:1025300020616C6C6F776564210000002DE9FF4F0E
:1025400081B09846DDE90FA9DDF838B006004FF0FC
:10255000000706D12CA340F2574239A13CA0FFF757
:1025600035F94FF420721C210E2002F06BFC05009F
:1025700046D068891C2806D223A340F262423EA1BD
:1025800033A0FFF723F96C68119801F057FDE08044
:1025900096F82C00062806D01BA340F26942434956
:1025A0002BA0FFF713F9D8F80010A160B8F80400C9
:1025B000A081DAF80010C4F81210BAF80400E08222
:1025C000DBF80000C4F80E00D9F80000A0614FF459
:1025D00080702080082060800620207104206071B7
:1025E00040F60600DDE9022300902946304600F05F
:1025F00085F9284603F028F8384605B0BDE8F08F85
:102600004FF0FF30F9E700002E2E2F4D6964646C07
:102610006577617265732F54686972645F50617287
:1026200074792F4C7749502F7372632F636F7265E3
:102630002F697076342F6574686172702E630000A4
:102640006E6574696620213D204E554C4C0000009B
:10265000417373657274696F6E2022257322206640
:1026600061696C6564206174206C696E6520256405
:1026700020696E2025730A00636865636B207468A7
:10268000617420666972737420706275662063617C
:102690006E20686F6C642073747275637420657447
:1026A000686172705F6864720000000048B90008D9
:1026B000014A00F003B800006CB700087FB5064D72
:1026C000031D0124CDE90035CDE90214223319465A
:1026D000FFF734FF04B070BD72B7000870B5164D37
:1026E000002400BF04EB440005EBC002117DF1B1F2
:1026F000508A401C80B25082B0F5967F0AD20129E0
:1027000006D003290AD004290AD001290BD00EE0F3
:10271000052808D32046FFF729FC08E0042000E044
:102720000220107503E0111D9068FFF7C1FF641CC3
:102730000A2CD7DB70BD000098670020F8B504466E
:1027400090F82C001F4616460D46062806D020A3FA
:1027500040F2A9122CA135A0FFF738F89DB12868E6
:1027600088B1214600F082FB68B92878C0F30310D5
:102770000E2808D0224639462846FFF7C7FA002817
:1027800004DA40B2F8BD6FF00F00F8BD00EB400175
:102790003048022300EBC102137594603368D360A4
:1027A000B38813820023538250F8315075B140F83A
:1027B00031304FF400600090334604F12602294680
:1027C000204600F09BF8284602F03EFF0020F8BDAE
:1027D0002E2E2F4D6964646C6577617265732F547A
:1027E000686972645F50617274792F4C7749502F19
:1027F0007372632F636F72652F697076342F6574FF
:10280000686172702E6300006E657469662D3E68A3
:1028100077616464725F6C656E203D3D204554486D
:102820005F4857414444525F4C454E0041737365C5
:102830007274696F6E2022257322206661696C654F
:1028400064206174206C696E6520256420696E20A7
:1028500025730A00986700202DE9F041044640895D
:102860000E270D460E283CD9E07B18B995F83000AC
:10287000401CE073606801788689CA0714D001297A
:1028800005D006221C49FDF71DFD48B10CE041783A
:1028900051B980785E2807D1607B40F0100002E0DB
:1028A000607B40F008006073082E03D0B6F5C16F5E
:1028B00017D10DE095F82D00000712D539462046B6
:1028C00003F076F868B92946204600F017FC10E0BE
:1028D00095F82D00000704D53946204603F068F826
:1028E00018B1204602F0B0FE03E029462046FFF76B
:1028F0004FFB0020BDE8F0816CB700082DE9F041E6
:1029000004461F4690460E46069801F097FB054682
:102910000E21304602F032FA18B16FF00100BDE826
:10292000F0817068858139680160B9888180D8F844
:102930000020C0F80620B8F80410418194F82C005B
:10294000062806D006A34FF4997213A11FA0FEF724
:102950003DFF31462046A269BDE8F0411047000026
:102960002E2E2F4D6964646C6577617265732F54E8
:10297000686972645F50617274792F4C7749502F87
:102980007372632F6E657469662F65746865726E05
:1029900065742E63000000006E657469662D3E68E4
:1029A00077616464725F6C656E206D75737420620C
:1029B00065203620666F722065746865726E657476
:1029C0005F6F75747075742100000000417373654A
:1029D0007274696F6E2022257322206661696C65AE
:1029E00064206174206C696E6520256420696E2006
:1029F00025730A0010B5040006D10BA340F20E2285
:102A00000EA112A0FEF7E2FE732084F82E007420BF
:102A100084F82F00174860611748A061204601F034
:102A2000B5F9002010BD00002E2E2F5372632F65C4
:102A3000746865726E657469662E63006E6574698C
:102A40006620213D204E554C4C00000041737365BB
:102A50007274696F6E2022257322206661696C652D
:102A600064206174206C696E6520256420696E2085
:102A700025730A0095200008553F000870B50546EB
:102A800001F008FA040009D02A6929469047002875
:102A900004D02046BDE8704002F0D6BD70BD70473E
:102AA0002DE9FC41002506460195009590F82D0082
:102AB000400742D5254C606868B34FF4805200212E
:102AC0002046FEF719F9FEF749FA4FF47A7701909C
:102AD0006A4601211D48FDF7C5FFFEF73FFA01993F
:102AE000401AB84217D800988006F1D56A461021DE
:102AF0001648FDF7B7FF0098410703D54FF4006172
:102B0000E16000E0E560800701D5A5600DE04FF4CD
:102B10008040A06009E0E068A168C00840EA510078
:102B200082B200210948FEF7E7F800210748FDF7C7
:102B3000EBFC0648FDF7D8FF02E00448FEF716F864
:102B40003046FFF7ACFFBDE8FC810000B03100204B
:102B500038B504468DF8000069460320ABBE204618
:102B600038BD0A46032100F0F5B800002DE9FE4FFC
:102B70008A4644490446D1F8088098F800000007C6
:102B8000850E142D79D36089042876D36068007887
:102B9000002872D0082870D1486901F11407C0F3E9
:102BA00003120E2A69D08946096800F05FF90028EF
:102BB00063D12089082860D305F10E010E46204616
:102BC00002F0DCF8002830D02089411989B288420F
:102BD00053D84FF420720E2002F034F906004CD086
:102BE000718905F10800814216D32A464146706872
:102BF000FDF72AFB2946304602F0DAFE002806D00F
:102C000021A3B6222EA13CA0FEF7E0FD04E0214660
:102C1000304602F09DFB18B1304602F015FD2CE065
:102C2000204602F011FD34460CE03146204602F009
:102C3000BFFE002806D014A3C72239A12EA0FEF79C
:102C4000C5FD1AE029462046666802F097F8A0B94B
:102C500060683968FF22C160D9F810100161002155
:102C6000317071800272418101228DE806040A46AA
:102C7000FF233946204600F011FB2046BDE8FE4FF9
:102C800002F0E2BC5C3200202E2E2F4D6964646C91
:102C90006577617265732F54686972645F50617201
:102CA00074792F4C7749502F7372632F636F72655D
:102CB0002F697076342F69636D702E6300000000F9
:102CC00069636D705F696E7075743A206D6F7669B7
:102CD0006E6720722D3E7061796C6F616420746F35
:102CE0002069636D70206865616465722066616942
:102CF0006C65640A00000000417373657274696F4B
:102D00006E2022257322206661696C6564206174DF
:102D1000206C696E6520256420696E2025730A0089
:102D200069636D705F696E7075743A207265737453
:102D30006F72696E67206F726967696E616C20706F
:102D40002D3E7061796C6F6164206661696C6564A9
:102D50000A0000002DE9FF479146884606464FF4D9
:102D600020722421222002F06DF8050031D06889FC
:102D7000242806D218A34FF4B47225A12FA0FEF781
:102D800025FD6C6877681C2284F8008084F8019027
:102D90004FF00008A4F80480A4F806806868716801
:102DA0000830FDF751FAF868039003A800F086FC9C
:102DB00060B1A4F802800122CDF80080CDE90120A5
:102DC000FF2303AA0021284600F068FA284602F0F3
:102DD0003BFCBDE8FF8700002E2E2F4D6964646C1C
:102DE0006577617265732F54686972645F506172B0
:102DF00074792F4C7749502F7372632F636F72650C
:102E00002F697076342F69636D702E6300000000A7
:102E1000636865636B20746861742066697273749B
:102E200020706275662063616E20686F6C64206933
:102E3000636D70206D6573736167650041737365C1
:102E40007274696F6E2022257322206661696C6539
:102E500064206174206C696E6520256420696E2091
:102E600025730A000A460B21FFF774BF421C12D0DB
:102E700088B191F82D2092070BD54B68834208D07A
:102E8000896800EA01020B409A4202D10143491CC1
:102E900001D0002070470120704700002DE9F74F56
:102EA00088B00446099800251426808CAF1F14387A
:102EB000C11700EB5170C0F3CF000390606806901B
:102EC000017801F00F01052903D038460BB0BDE8A9
:102ED000F08F6189142907D25BA34FF43F7269A177
:102EE0006FA0FEF773FCF0E7C08801F0A7F8C0F30D
:102EF0000C0100F4005002910790208914381FFA49
:102F000080F88EE003984FF6FF7101EAC000414659
:102F1000404500D9084604904FF4207214210E2039
:102F200001F090FF5FEA000A7ED0BAF80A00142888
:102F300006D245A34FF4497263A159A0FEF746FC9F
:102F40001422DAF804000699FDF77EF9DAF8040095
:102F50000590049F35E06089811B8DB2B04206D296
:102F600039A340F22D3260A14DA0FEF72FFCAF42F5
:102F700000D23D461DB3052001F0E6FB5FEA0009E3
:102F800057D060684B463044CDE9000541222946C0
:102F9000002002F0C9F85FEA000B50D0204602F092
:102FA000C1FC5549C9E904145946504602F0D8F805
:102FB000781B07043F0C06D000262468CBE7246862
:102FC0000026002FC7D1701986B20998808C14385A
:102FD00040450298C0F30C0001DB079909B140F4A9
:102FE000005001F02BF80599C8800498143080B285
:102FF00001F024F80599488005980021418109983D
:1030000051460A9A43699847504602F01DFB0499BD
:10301000A8EB01001FFA80F8DDE90201084480B244
:103020000290B8F1000F00E006E07FF46BAF0020E3
:103030004CE7504602F008FB4FF0FF3046E74846A9
:1030400000F06CFBF5E700002E2E2F4D6964646CD8
:103050006577617265732F54686972645F5061723D
:1030600074792F4C7749502F7372632F636F726599
:103070002F697076342F6970345F667261672E63D2
:10308000000000006970345F6672616728293A2089
:103090007062756620746F6F2073686F72740000C1
:1030A000417373657274696F6E20222573222066E6
:1030B00061696C6564206174206C696E65202564AB
:1030C00020696E2025730A0074686973206E656537
:1030D00064732061207062756620696E206F6E6572
:1030E0002070696563652100702D3E6C656E203E21
:1030F0003D20706F66660000F53C00082DE9F04742
:10310000456807460E4628780421B1EB101F03D00E
:10311000384602F099FA77E000074FEA906868882D
:1031200000F08CFF04463889A04203D92146384676
:1031300002F05EFB79894145EAD33889A042E7D3A2
:10314000B8F1140FE4D32969DFF81C91C1F303101F
:103150000E28C9F81410EA68C9F8102005D03046C6
:1031600000F086F850B1344619E096F82D00C007FB
:1031700002D070680028F6D1002410E099F81400FD
:1031800000247F280BD03948046806E0B44203D0FD
:10319000204600F06DF810B92468002CF6D13146B5
:1031A000D9F81000FFF762FE0028B1D199F810009D
:1031B000C0F303100E28ABD0002CA9D0E88830F063
:1031C000C00005D0384600F035F907001CD07D68F6
:1031D000C9F80850C9E90046297838460907890E18
:1031E000A9F80C10414602F0E3FB687A012818D0D8
:1031F000062811D011280AD04D462146D9F81400CE
:10320000FFF734FE90B11EE00020BDE8F0873146A4
:10321000384607F0FBFD19E03146384603F068FDFB
:1032200014E031463846FFF7A1FC0FE0287DC0F3DB
:1032300003100E2807D04146384602F0C1FA022199
:103240003846FFF78EFC384602F0FEF90021C9F837
:103250000010C9F80410C9F80810A9F80C10C9F832
:103260001010C9F81410CFE75C3200206400002071
:1032700010B590F82D10C9070CD0416851B1064A1D
:1032800052698A4204D001461046FFF7EFFD08B1AB
:10329000012010BD002010BD5C320020FEB5DDE92C
:1032A0000954089E1AB109B10F6807B9211D00968B
:1032B000CDE9015400F002F8FEBD00002DE9F84F01
:1032C0000546DDE90BA8807BDDF828B01F461646D1
:1032D0008946012806D02FA34FF455723AA13DA08C
:1032E000FEF774FA6FF00104002E35D01421284641
:1032F00001F044FD002832D168896C68142806D298
:1033000024A34FF462723DA132A0FEF75FFA277248
:1033100084F809A0306820614520207084F801B04D
:10332000288900F08BFE414F60804FF0000AA4F81E
:1033300006A0388800F082FEA0803888401C3880C3
:10334000B9F1000F05D0D9F80000E060A4F80AA098
:103350000CE037480068F8E76889142802D2204654
:10336000BDE8F88F68686E4600690090B8F82400E0
:1033700040B12989814205D9324641462846FFF7A6
:103380008DFDEDE7D8F8143040463246294698477F
:10339000E6E700002E2E2F4D6964646C657761723C
:1033A00065732F54686972645F50617274792F4C31
:1033B0007749502F7372632F636F72652F69707630
:1033C000342F6970342E6300702D3E726566203D87
:1033D0003D203100417373657274696F6E20222540
:1033E0007322206661696C6564206174206C696E6B
:1033F0006520256420696E2025730A006368656373
:103400006B207468617420666972737420706275D1
:10341000662063616E20686F6C64207374727563DC
:10342000742069705F68647200000000CA000020A8
:1034300074B800082DE9F05F45688346287800F0ED
:103440000F0005287DD1E88800F0F8FDC004070CC6
:10345000688800F0F3FD29780907890E814270D849
:10346000401A1FFA80F8584601F01BFF6A4C0646C6
:10347000208830440A2809D93146284600F0E4FB68
:1034800000285ED0208830440A28E8D8A146646825
:103490004FF0000A0CE06069E968884207D1A06932
:1034A0002969884203D1A089A988884203D0246869
:1034B000002CF0D106E02CB1E88800F0BFFDC0047C
:1034C0001BD025E0042001F03FF904000AD1314669
:1034D000284600F0B9FBB04233DB042001F034F998
:1034E0000400CED02021FCF7D6FE0F20E077D9F8DB
:1034F00004102160C9F8044004E0E08900F09EFD5A
:10350000C00405D01422294604F10800FCF79CFEF3
:10351000A87940F340156D1C08D007EB080080B275
:10352000B84263D34FF6EB7188425FD82A465946BA
:10353000204600F03BF9411C58D0B9F80020324435
:1035400000E064E0A9F8002035B107EB0801A18391
:10355000A17F41F00101A177012845D1A08B142260
:10356000143087B2606804F10801456828462E6867
:10357000FCF76AFE384600F061FD6880A5F806A0F9
:10358000A5F80AA0656809E014213046776802F0C2
:103590000FFA3146284601F0E3FD3E68002EF3D1D4
:1035A000D9F804104E468C4205D1002105E0086888
:1035B000A04202D001460029F9D1204600F01AFAB3
:1035C000284601F06EFE04463088A04206D213A3BE
:1035D00040F29B2220A127A0FEF7F8F83088001BBC
:1035E00030802846BDE8F09F0020FBE7606870B996
:1035F000D9F80400844206D008A340F2AB2227A1E8
:103600001CA0FEF7E3F80021204600F0F3F958462D
:1036100002F01AF8E8E70000CC0000202E2E2F4D13
:103620006964646C6577617265732F54686972644C
:103630005F50617274792F4C7749502F7372632FEA
:10364000636F72652F697076342F6970345F6672AC
:1036500061672E630000000069705F7265617373BB
:103660005F70627566636F756E74203E3D20636C9B
:10367000656E0000417373657274696F6E20222558
:103680007322206661696C6564206174206C696EC8
:103690006520256420696E2025730A006E6F7420F2
:1036A0006669727374616C74686F756768206A7597
:1036B000737420656E7175657565640070B501463B
:1036C000144813E090F82D20D3070FD053070DD5E1
:1036D00043685BB184680D68234005EA04069E4296
:1036E00016D0920702D4C268954211D00068002813
:1036F000E8D10948006850B190F82D20D30706D0D2
:10370000520704D5426812B109787F2900D1002000
:1037100070BD0000640000206800002010B50400A7
:1037200006D106A34FF4317213A116A0FEF74EF88E
:103730002146BDE81040052000F092BF2E2E2F4DEF
:103740006964646C6577617265732F54686972642B
:103750005F50617274792F4C7749502F7372632FC9
:10376000636F72652F697076342F6970345F66728B
:1037700061672E63000000007020213D204E554CF3
:103780004C000000417373657274696F6E202225CE
:103790007322206661696C6564206174206C696EB7
:1037A0006520256420696E2025730A002DE9F05FED
:1037B0004C68064693460F4600254FF00108608886
:1037C00000F03CFC21784FF0FF3A0907890E814256
:1037D00031D8A0EB0109E08800F030FCC0047C681F
:1037E000010C0020206001EB090083B2A180E3807E
:1037F0008B4220D3726829E05068B0F804C061455C
:1038000015D222606DB1B5F806C0614513D380882A
:10381000834210D82F60A088844506D04FF000085E
:1038200003E08088834206D877608AB12EE002D018
:10383000C288914202D25046BDE8F09F25B1EA8885
:10384000624501D04FF0000802680546002AD3D136
:1038500095B1E888A188884206D92AA34FF4DB7283
:1038600037A13FA0FDF7B2FF2F60E888A18888420A
:103870000CD04FF0000809E0706830B121A34FF47C
:10388000DF7241A136A0FDF7A1FF7760BBF1000F09
:1038900002D1B07FC007CFD0B8F1000F30D072682E
:1038A000002A2DD050688088002829D12168204620
:1038B00029B14C68C088A1888842F7D020E0B8F1CF
:1038C000000F1DD032B90FA340F2DF123CA124A09B
:1038D000FDF77CFF70684068A04206D109A34FF451
:1038E000F07237A11EA0FDF771FF206830B105A36B
:1038F0004FF4F17236A11AA0FDF768FF01209BE793
:10390000002099E72E2E2F4D6964646C65776172F3
:1039100065732F54686972645F50617274792F4CBB
:103920007749502F7372632F636F72652F697076BA
:10393000342F6970345F667261672E630000000087
:10394000636865636B20667261676D656E74732072
:10395000646F6E2774206F7665726C617000000072
:10396000417373657274696F6E202225732220661D
:1039700061696C6564206174206C696E65202564E2
:1039800020696E2025730A006E6F2070726576695B
:103990006F757320667261676D656E742C20746834
:1039A0006973206D75737420626520746865206684
:1039B0006972737420667261676D656E74210000B0
:1039C00073616E69747920636865636B0000000041
:1039D00076616C69646174655F646174616772616A
:1039E0006D3A6E6578745F70627566213D4E554C18
:1039F0004C00000070B504460C480D464168A142D9
:103A000002D1216841600AE0002D06D108A340F2EE
:103A1000451216A11CA0FDF7D9FE2068286021469A
:103A2000BDE87040042000F01BBE0000CC00002068
:103A30002E2E2F4D6964646C6577617265732F5407
:103A4000686972645F50617274792F4C7749502FA6
:103A50007372632F636F72652F697076342F69708C
:103A6000345F667261672E630000000073616E69E7
:103A7000747920636865636B206C696E6B65642084
:103A80006C69737400000000417373657274696F30
:103A90006E2022257322206661696C656420617442
:103AA000206C696E6520256420696E2025730A00EC
:103AB0002DE9F047054600240F46A94205D12FA362
:103AC000AB223DA13FA0FDF781FE002F08D0386852
:103AD000A84205D029A3AD2244A13AA0FDF776FE65
:103AE0006E684FF480387068818800291AD10068A8
:103AF0006860142205F108017068FCF7A5FB01213C
:103B00003046FFF7AFF9304601F0CBFB04464045A5
:103B100005D31AA3BC223AA12AA0FDF757FE3046CE
:103B200001F092FD6E6812E07068B1460668484682
:103B300001F0B7FB0444444505D310A3CC2230A1C7
:103B400020A0FDF743FEA4B2484601F07DFD002E03
:103B5000EAD139462846FFF74DFF314D2888A0426B
:103B600005D206A3D2222FA116A0FDF72FFE28888A
:103B7000001B28802046BDE8F08700002E2E2F4D28
:103B80006964646C6577617265732F5468697264E7
:103B90005F50617274792F4C7749502F7372632F85
:103BA000636F72652F697076342F6970345F667247
:103BB00061672E63000000007072657620213D2051
:103BC00069707200417373657274696F6E2022258B
:103BD0007322206661696C6564206174206C696E73
:103BE0006520256420696E2025730A007072657651
:103BF0002D3E6E657874203D3D2069707200000096
:103C000070627566735F6672656564202B20636CF5
:103C1000656E203C3D2030786666666600000000D8
:103C2000CC00002069705F72656173735F706275AC
:103C300066636F756E74203E3D2070627566735FBB
:103C400066726565640000002DE9F0471D4F8946E6
:103C5000064600240022134611461546786822E0E5
:103C6000D0F814C0D6F80C80C4450BD1D0F818C0D9
:103C7000D6F81080C44505D1B0F80CC0B6F8048061
:103C8000C44509D06D1C2AB190F81FC092F81F805E
:103C9000C44501D802461946D0F800C0BCF1000F57
:103CA00000D0034660460028DAD11AB11046FFF76B
:103CB000FFFE04444C4501DA012DCBDC2046BDE873
:103CC000F0870000CC00002070B50948002544684A
:103CD0000BE0E07F20B1401EE0772546246804E039
:103CE000204624682946FFF7E3FE002CF1D170BD81
:103CF000CC00002010B5040006D108A340F2CE226B
:103D000015A118A0FDF762FD606908B101F09CFCE7
:103D10002046BDE81040FFF701BD00002E2E2F4DBC
:103D20006964646C6577617265732F546869726445
:103D30005F50617274792F4C7749502F7372632FE3
:103D4000636F72652F697076342F6970345F6672A5
:103D500061672E630000000070637220213D204ED9
:103D6000554C4C00417373657274696F6E20222547
:103D70007322206661696C6564206174206C696ED1
:103D80006520256420696E2025730A003EB504462F
:103D90003D4D00203B490090296001218A03C5E97F
:103DA0000112CA02EA6029828DF8040080218DF890
:103DB0000510E1218DF806108DF808008DF8070038
:103DC0008DF8090001A9C5E90510E8611003286212
:103DD0002846FCF7E5FC28B994F82D0040F00400D3
:103DE00084F82D000423294A29492748FCF75EFC62
:103DF000274A04238032A2F580712348FCF71CFC7B
:103E0000062084F82C006869007884F82600686928
:103E1000407884F827006869807884F82800686909
:103E2000C07884F829006869007984F82A006869F4
:103E3000407984F82B0040F2DC5024F8240F607A9B
:103E400040F00A0060721048FCF74EFE6A461121ED
:103E50000D48FCF707FE0098112140F003020A48C4
:103E60000092FCF749FF6A4612210748FCF7FAFD69
:103E70000098122140F0200203480092FCF73CFF1A
:103E80003EBD000000800240B0310020E01900205B
:103E9000900100202DE9F84F0020044600902C48A6
:103EA000FCF740FC10B10020BDE8F88F2848818F56
:103EB000D0F840900904090C2FD04FF4C1720020B3
:103EC00000F0C0FF009040B32148009D40F2F45B39
:103ED000D0F830806E89002710E000BFA4F2F452C1
:103EE0005242FCF7B1F9D8F80C008046D0F808909F
:103EF0003F1BAAF2F456002407F2F457686806EB59
:103F0000040ADA4509EB04013844E7D83246FCF7E5
:103F10009BF92D683444002DDCD10D480022016B43
:103F200005E00B6843F000430B60C968521C836BCB
:103F30009342F6D800218163006800F58050426901
:103F4000120602D58022426181600098ACE7000031
:103F5000B03100202DE9F05F27480D46C66A0020E9
:103F600083460446D6F808A031E0306800280CDB10
:103F70006F894FF0000818E0A4F2F4525242FCF7A7
:103F800063F9F6683068002802DA6FF0070025E070
:103F9000D6F808A0A8EB040000F2F458ABEB04003C
:103FA000A9F2F45700F2F45B002407EB040940F295
:103FB000F451894569680AEB04004144DCD83A466B
:103FC000FCF742F90BEB07002D683C448346002DBB
:103FD000CBD101460848FCF70BFE002006490968D2
:103FE00001F580514A69920603D520224A610022D8
:103FF0004A60BDE8F09F0000B031002010B50446D3
:104000004068804701F0F8FE094A216852688B1821
:104010001A1AB2F1004F03D308442246054902E0C0
:10402000044922461846BDE8104001F049BF00008F
:10403000B4000020FD3F000800BA704740BA704746
:1040400010B500F0E9F800F059FB00F053FD06F060
:10405000D1FE02F041FEBDE8104001F0ADBFFCF71B
:104060008BFFFDF75DFBFDF7A7FAFDF7CBFA06F036
:1040700053FDFDF745FBFCE72DE9F04100284DD04D
:10408000810704D026A340F2732231A132E0394DDA
:10409000A0F1080429688C4203D36A680C3090426E
:1040A00004D91FA340F27F2233A123E02079002806
:1040B00025D0601A86B2208801F06EFE074660881F
:1040C00001F06AFE21884FF4C863002299420DD89E
:1040D000618899420AD8B14202D00088B04205D125
:1040E0006868874210D07888B0420DD00CA340F2A7
:1040F000952228A1BDE8F04133A0FDF767BB08A3D6
:104100004FF423723AA1F5E72271A868844200D2E5
:10411000AC602046BDE8F04101F06EBDBDE8F08125
:104120002E2E2F4D6964646C6577617265732F5410
:10413000686972645F50617274792F4C7749502FAF
:104140007372632F636F72652F6D656D2E63000050
:104150006D656D5F667265653A2073616E6974792D
:1041600020636865636B20616C69676E6D656E7452
:1041700000000000300000206D656D5F66726565AF
:104180003A20696C6C6567616C206D656D6F727942
:10419000000000006D656D5F667265653A20696CB0
:1041A0006C6567616C206D656D6F72793A206E6F1A
:1041B0006E2D6C696E6B65643A20646F75626C6518
:1041C0002066726565000000417373657274696FE3
:1041D0006E2022257322206661696C6564206174FB
:1041E000206C696E6520256420696E2025730A00A5
:1041F0006D656D5F667265653A20696C6C656761B7
:104200006C206D656D6F72793A20646F75626C65B4
:10421000206672656500000070B50B480B4C20F0FD
:1042200003014FF4C86521600D80002048800871AB
:10423000284601F0B1FD01216060017105804580D3
:104240002068A06070BD00007732002030000020A0
:104250002DE9F04700286FD0C41C4FF6FC710C40CC
:104260004FF4C8690C2C01D20C2401E04C457CD8D9
:1042700084427AD34148C4F5C867824601890288DE
:10428000891A8EB276E0304601F086FD0546007947
:1042900000286CD12888801B0838A04267D3288862
:1042A00004F11401801B08384FF0010888421DD327
:1042B0003019083087B24F4506D131A340F287321A
:1042C0003BA140A0FDF782FA384601F065FD0021D0
:1042D00001712988018046802F8085F8048000883C
:1042E000484505D001F058FD478001E085F804807D
:1042F000DAF808005646854203D014E0008801F041
:104300004BFD017911B171688842F7D1B0607168D5
:10431000884208D0007930B119A340F2B53233A1F8
:1043200028A0FDF753FA281971680830884208D987
:1043300013A340F2B93200E015E033A121A0FDF74C
:1043400045FAA8070DD00EA340F2BB323AA11DA03A
:10435000FDF73CFA0AA340F2BD3243A119A0FDF7D4
:1043600035FA05F10800BDE8F08705E0FFE7DAF867
:104370000000865BB74286D80020F4E730000020BA
:104380002E2E2F4D6964646C6577617265732F54AE
:10439000686972645F50617274792F4C7749502F4D
:1043A0007372632F636F72652F6D656D2E630000EE
:1043B000696E76616C6964206E65787420707472C1
:1043C00000000000417373657274696F6E202225CE
:1043D0007322206661696C6564206174206C696E6B
:1043E0006520256420696E2025730A006D656D5F68
:1043F0006D616C6C6F633A20216C667265652D3E51
:1044000075736564000000006D656D5F6D616C6CB7
:104410006F633A20616C6C6F6361746564206D65D5
:104420006D6F7279206E6F742061626F7665207295
:10443000616D5F656E642E006D656D5F6D616C6CA6
:104440006F633A20616C6C6F6361746564206D65A5
:104450006D6F72792070726F7065726C7920616C0B
:1044600069676E65642E00006D656D5F6D616C6CD3
:104470006F633A2073616E69747920636865636B5A
:1044800020616C69676E6D656E7400000249098871
:10449000401A80B270470000300000202DE9F05F24
:1044A0000646CC1C4FF6FC7004404FF4C86A0C2C36
:1044B00001D20C2401E054452AD88C4228D33E4F27
:1044C0003868864202D37868864206D33BA340F21E
:1044D000D12246A14BA0FDF779F93868864249D32D
:1044E00079688E4246D2A6F10805BB46281A87B2E3
:1044F0002888C01B08381FFA80F94C4506D92FA31D
:104500004FF4397249A13FA0FDF760F94C4503D93A
:104510004FF00000BDE8F09F2CD0288801F03CFC53
:1045200080460079002827D004F11400484521D89E
:104530003819083084B22888504506D11FA340F2AC
:10454000163242A12FA0FDF741F9204601F024FCCC
:10455000DBF80820904201D2CBF80800002101715D
:104560002988018047802C800088504502D001F0C6
:1045700013FC44803046CDE72888504506D10FA370
:1045800040F2F52231A11FA0FDF720F938190830BB
:10459000DBF80810B8F8009084B2414504D12046F9
:1045A00001F0FAFBCBF80800204601F0F5FB0021F2
:1045B0000171A0F80090D5E7300000202E2E2F4D7D
:1045C0006964646C6577617265732F54686972649D
:1045D0005F50617274792F4C7749502F7372632F3B
:1045E000636F72652F6D656D2E6300006D656D5F85
:1045F0007472696D3A206C6567616C206D656D6FD2
:1046000072790000417373657274696F6E202225A0
:104610007322206661696C6564206174206C696E28
:104620006520256420696E2025730A006D656D5F25
:104630007472696D2063616E206F6E6C792073688F
:1046400072696E6B206D656D6F727900696E76614F
:104650006C6964206E6578742070747200000000CC
:10466000092806D307A34FF4D57212A118A0FDF7AD
:10467000ADB8002904D0204A52F82000FDF790BAC6
:10468000704700002E2E2F4D6964646C657761724F
:1046900065732F54686972645F50617274792F4C2E
:1046A0007749502F7372632F636F72652F6D656D3D
:1046B000702E63006D656D705F667265653A20747B
:1046C000797065203C204D454D505F4D41580000AC
:1046D000417373657274696F6E20222573222066A0
:1046E00061696C6564206174206C696E6520256465
:1046F00020696E2025730A00E4B7000830B5064D26
:10470000002400BF55F8240000F008F8641CA4B28F
:10471000092CF7D330BD0000E4B7000882680021FF
:1047200011604168C91C21F00301002207E0836881
:10473000521C1B680B608368196003881944438806
:104740009342F4DC7047000010B5092808D308A391
:1047500040F2571212A11AA0FDF738F8002010BD40
:10476000214951F82000BDE81040FDF767BA00006C
:104770002E2E2F4D6964646C6577617265732F54BA
:10478000686972645F50617274792F4C7749502F59
:104790007372632F636F72652F6D656D702E63008A
:1047A0006D656D705F6D616C6C6F633A20747970CC
:1047B00065203C204D454D505F4D415800000000A4
:1047C000417373657274696F6E20222573222066AF
:1047D00061696C6564206174206C696E6520256474
:1047E00020696E2025730A00E4B700082DE9F04720
:1047F0000400DDE90970089D03D03FB100290DD008
:104800000DE035A340F2271240A103E032A34FF49C
:10481000947245A14DA0FCF7D9FF1DE0554902B99E
:10482000544A03B9534B00266660A660DFF848C1BE
:10483000C4F814C0E660A68484F82D60C4E9076556
:104840004E4D95F800C084F830C02061204600F03D
:10485000B7F92046B84710B10020BDE8F087B2464E
:1048600040F28B1840F28D1994F83000FF2801D1E6
:1048700084F830A000276E681EE0A64205D116A37A
:1048800042463FA131A0FCF7A1FF7F1CFF2F05DDB1
:1048900011A34A463FA12DA0FCF798FF96F83000DF
:1048A00094F83010884206D1C8B2401C84F8300019
:1048B000002ED9D102E03668002EDED194F8300007
:1048C000FE2806D0401C28706868206020466C6076
:1048D000C3E785F800A0F7E72E2E2F4D6964646CBE
:1048E0006577617265732F54686972645F50617295
:1048F00074792F4C7749502F7372632F636F7265F1
:104900002F6E657469662E63000000006E65746921
:10491000665F6164643A20696E76616C6964206EDA
:1049200065746966000000006E657469665F6164A5
:10493000643A204E6F20696E69742066756E6374E8
:10494000696F6E20676976656E000000417373655C
:104950007274696F6E2022257322206661696C650E
:1049600064206174206C696E6520256420696E2066
:1049700025730A0074B80008B94B000860000020D5
:104980006E6574696620616C72656164792061642A
:1049900064656400746F6F206D616E79206E65745C
:1049A0006966732C206D61782E20737570706F723C
:1049B000746564206E756D6265722069732032358E
:1049C0003500000070B50C46054602F0EBFE2146AE
:1049D0002846BDE8704006F093BB0A68C3689A4257
:1049E00004D001B90022C260012070470020704746
:1049F000F8B515460C00064606D113A340F2CB12BB
:104A00001EA122A0FCF7E2FE35B90FA34FF4E67217
:104A10001AA11EA0FCF7DAFE21687068814210D04E
:104A20000091286069462846FFF7CCFF3CB120681A
:104A300070600121304600F05FF80120F8BD0020D1
:104A4000F6E70020F8BD00002E2E2F4D6964646C3F
:104A50006577617265732F54686972645F50617223
:104A600074792F4C7749502F7372632F636F72657F
:104A70002F6E657469662E6300000000696E7661B2
:104A80006C696420706F696E746572004173736540
:104A90007274696F6E2022257322206661696C65CD
:104AA00064206174206C696E6520256420696E2025
:104AB00025730A000A6883689A4204D001B900226B
:104AC00082600120704700207047000001000CD078
:104AD0000748406807E000BF90F83020521CD2B26F
:104AE0008A4203D000680028F6D1002070470000F9
:104AF000600000207047000070B50D46040006D12C
:104B00000DA340F26D3219A121A0FCF75FFE94F8CD
:104B10002D0041070ED5C1070CD0E9070AD0616806
:104B2000002907D0000705D5211D2046BDE87040AB
:104B3000FDF7BEBD70BD00002E2E2F4D6964646C64
:104B40006577617265732F54686972645F50617232
:104B500074792F4C7749502F7372632F636F72658E
:104B60002F6E657469662E63000000006E657469BF
:104B7000665F69737375655F7265706F7274733A9F
:104B800020696E76616C6964206E657469660000E8
:104B9000417373657274696F6E20222573222066DB
:104BA00061696C6564206174206C696E65202564A0
:104BB00020696E2025730A006FF00B00704700001B
:104BC0002DE9F84F4FF000091D4616460C008246AD
:104BD000C84600D1114C06B9104E05B90F4DACB105
:104BE000206898B100274A4631465046FFF762FFD9
:104BF000424629465046FFF7F0FE002F04D16A4690
:104C000021465046FFF7F4FEBDE8F88F01276A46BB
:104C100021465046FFF7ECFEE5E7000074B80008B7
:104C200001498860704700006000002058B190F88A
:104C30002D10CA070ED001F0FE0180F82D100907D3
:104C400008D5FDF74DB804A340F29B320FA117A081
:104C5000FCF7BCBD704700002E2E2F4D6964646CBC
:104C60006577617265732F54686972645F50617211
:104C700074792F4C7749502F7372632F636F72656D
:104C80002F6E657469662E63000000006E6574699E
:104C9000665F7365745F646F776E3A20696E7661E4
:104CA0006C6964206E657469660000004173736509
:104CB0007274696F6E2022257322206661696C65AB
:104CC00064206174206C696E6520256420696E2003
:104CD00025730A00002800D0C161704750B190F8D8
:104CE0002D10CA070DD141F0010180F82D100321CC
:104CF000FFF702BF03A34FF454720FA115A0FCF7F6
:104D000065BD70472E2E2F4D6964646C65776172A6
:104D100065732F54686972645F50617274792F4CA7
:104D20007749502F7372632F636F72652F6E6574AE
:104D300069662E63000000006E657469665F7365C6
:104D4000745F75703A20696E76616C6964206E6577
:104D500074696600417373657274696F6E202225F1
:104D60007322206661696C6564206174206C696ED1
:104D70006520256420696E2025730A00002200F05A
:104D800001B8000070B5A8B1B1F5803F26D2002966
:104D900018D004898BB214FA81F5ADB29D421DD3AF
:104DA000057B2D0610D54268511A00F11002914280
:104DB00014D30CE00AA340F2DF1215A117A0FCF7F0
:104DC00005FD0BE0002070BD42B14268511A416000
:104DD000418919444181E1180181F3E7012070BD47
:104DE0002E2E2F4D6964646C6577617265732F5444
:104DF000686972645F50617274792F4C7749502FE3
:104E00007372632F636F72652F706275662E630015
:104E10007020213D204E554C4C00000041737365BD
:104E20007274696F6E2022257322206661696C6539
:104E300064206174206C696E6520256420696E2091
:104E400025730A002DE9FC5F054690460F46104683
:104E5000012A0FD041280DD0B0F5C17F10D0B2F596
:104E6000207F55D042A340F227124DA153A0FCF75A
:104E7000ADFC5CE00246002000F0FEF8044674E061
:104E80000024A1460820FFF75FFC060036D005F19C
:104E9000030B2BF00300C0F51470B84200D938465C
:104EA00082460020CDE900807019133020F0030104
:104EB00053463A46304600F08DFC3079800706D0E4
:104EC0002BA34FF4807247A13CA0FCF77FFC9421F8
:104ED000B1EB9B0F06D126A34FF481724DA137A0F1
:104EE000FCF774FC94B1C9F80060A7EB0A00070452
:104EF000B1463F0C4FF00005C4D136E052490120C5
:104F00000870A4B1204600F09FFB10E03446ECE7A7
:104F1000E81C20F00301F81C20F00302881880B27E
:104F200000F1100189B2824201D88A4202D90020E0
:104F3000BDE8FC9F0846FFF78BF9041EF8D000205F
:104F4000CDE900806019133020F003013B461A467A
:104F5000204600F03FFC2079800706D004A34FF4E0
:104F600091723AA115A0FCF731FC2046E0E7000061
:104F70002E2E2F4D6964646C6577617265732F54B2
:104F8000686972645F50617274792F4C7749502F51
:104F90007372632F636F72652F706275662E630084
:104FA000706275665F616C6C6F633A206572726FD8
:104FB0006E656F7573207479706500004173736559
:104FC0007274696F6E2022257322206661696C6598
:104FD00064206174206C696E6520256420696E20F0
:104FE00025730A00706275665F616C6C6F633A20AE
:104FF0007062756620712D3E7061796C6F616420FE
:1050000070726F7065726C7920616C69676E65642F
:1050100000000000504255465F504F4F4C5F4255D4
:105020004653495A45206D75737420626520626944
:1050300067676572207468616E204D454D5F414C15
:1050400049474E4D454E54006C0000207062756615
:105050005F616C6C6F633A20706275662D3E7061A3
:10506000796C6F61642070726F7065726C79206109
:105070006C69676E656400002DE9FC4114460E46BC
:105080000746412A08D0012C06D00CA34FF4A57284
:1050900016A11BA0FCF79AFB0720FFF755FB0500A4
:1050A0004FF0000008D0CDE9004033461A4639469B
:1050B000284600F08FFB2846BDE8FC812E2E2F4DA0
:1050C0006964646C6577617265732F546869726492
:1050D0005F50617274792F4C7749502F7372632F30
:1050E000636F72652F706275662E6300696E7661FC
:1050F0006C696420706275665F7479706500000089
:10510000417373657274696F6E2022257322206665
:1051100061696C6564206174206C696E652025642A
:1051200020696E2025730A007CB51C46DDE9063532
:10513000C01C20F003004618AE4201D900207CBDFF
:105140000BB1184400E000200223CDE900230B46F8
:1051500001461A46204600F03DFB20467CBD00007B
:1051600070B50D4608B1002D08D1BDE8704014A3FC
:1051700040F259321EA12CA0FCF728BB044600685F
:1051800020B121892A8911442181F7E72089618989
:1051900088420FD00AA340F262322DA122A0FCF770
:1051A00015FB206830B106A340F2633234A11EA083
:1051B000FCF70CFB2089298908442081256070BDFB
:1051C0002E2E2F4D6964646C6577617265732F5460
:1051D000686972645F50617274792F4C7749502FFF
:1051E0007372632F636F72652F706275662E630032
:1051F000286820213D204E554C4C29202626202869
:105200007420213D204E554C4C29202870726F6728
:1052100072616D6D65722076696F6C617465732063
:105220004150492900000000417373657274696F31
:105230006E2022257322206661696C65642061748A
:10524000206C696E6520256420696E2025730A0034
:10525000702D3E746F745F6C656E203D3D20702D27
:105260003E6C656E20286F66206C617374207062DE
:10527000756620696E20636861696E290000000010
:10528000702D3E6E657874203D3D204E554C4C008F
:1052900010B50C46FFF764FF2046BDE8104000F053
:1052A00041BB002102E0491C006889B20028FAD104
:1052B0000846704770B5154613890A461946FFF728
:1052C000C1FD04000CD0294600F042F830B105A31E
:1052D00040F224520FA114A0FCF778FA204670BDCA
:1052E000002070BD2E2E2F4D6964646C657761724D
:1052F00065732F54686972645F50617274792F4CC2
:105300007749502F7372632F636F72652F706275C8
:10531000662E6300706275665F636F7079206661E8
:10532000696C656400000000417373657274696F95
:105330006E2022257322206661696C656420617489
:10534000206C696E6520256420696E2025730A0033
:105350002DE9F0474FF000070C4605003E466FF080
:105360000F0904D01CB128892189884204D232A3B4
:1053700040F2C9323CA145E06FF0050A6889C11BC3
:105380006089801B814201D3804600E088466068C6
:105390004246811968683844FAF756FF68894744DD
:1053A0004644B84206D224A340F2D9323AA140A0E2
:1053B000FCF70CFA6089B04206D21FA340F2DA3241
:1053C00045A13BA0FCF702FA6089B04201D82468ED
:1053D00000266889B84202D12D68002765B1002CEB
:1053E00016D060892189884212D1206800280FD008
:1053F00011A340F2E93215E0002C1BD00EA34FF4AC
:1054000079723CA12AA0FCF7E1F94846BDE8F08793
:1054100075B16889298988420AD1286840B106A3F4
:1054200040F2EE3237A122A0FCF7D0F95046EDE76A
:10543000002CA3D10020E9E72E2E2F4D6964646C67
:105440006577617265732F54686972645F50617229
:1054500074792F4C7749502F7372632F636F726585
:105460002F706275662E6300706275665F636F7081
:10547000793A20746172676574206E6F7420626976
:105480006720656E6F75676820746F20686F6C6445
:1054900020736F75726365006F66667365745F7401
:1054A0006F203C3D20705F746F2D3E6C656E000078
:1054B000417373657274696F6E20222573222066B2
:1054C00061696C6564206174206C696E6520256477
:1054D00020696E2025730A006F66667365745F66C7
:1054E000726F6D203C3D20705F66726F6D2D3E6C5B
:1054F000656E0000705F746F20213D204E554C4C4E
:1055000000000000706275665F636F707928292063
:10551000646F6573206E6F7420616C6C6F772070A0
:1055200061636B657420717565756573210000009A
:105530002DE9F047002716468946B84620B1B9F153
:10554000000F06D004462CE018A340F20A4223A123
:1055500003E016A340F20B4228A131A0FCF736F974
:105560000020BDE8F0872BB16089984202D8181A54
:1055700083B215E06089C01A85B2B54200D93546BC
:1055800060682A46C11809EB0700FAF75DFE08EBD0
:1055900005001FFA80F8781987B2701B86B20023C5
:1055A00024680EB1002CDED14046DAE72E2E2F4DB6
:1055B0006964646C6577617265732F54686972649D
:1055C0005F50617274792F4C7749502F7372632F3B
:1055D000636F72652F706275662E63007062756608
:1055E0005F636F70795F7061727469616C3A206992
:1055F0006E76616C69642062756600007062756623
:105600005F636F70795F7061727469616C3A206971
:105610006E76616C696420646174617074720000FC
:10562000417373657274696F6E2022257322206640
:1056300061696C6564206174206C696E6520256405
:1056400020696E2025730A0070B5040003D0002580
:10565000A07B48B10FE024A34FF437722EA131A0F4
:10566000FCF7B4F8002070BD1FA340F2F12237A16F
:105670002CA0FCF7ABF8A07B401E10F0FF00A0733D
:1056800023D1207B617B266800F00F0089070CD5B1
:10569000206930B914A340F2FF2232A121A0FCF707
:1056A00095F82169204688470BE002280FD0012891
:1056B00010D0A0B10CA340F20F3233A119A0FCF717
:1056C00085F86D1CEDB23400C2D1284670BD21466C
:1056D000082001E021460720FEF7C2FFF1E720463F
:1056E000FEF7CAFCEDE700002E2E2F4D6964646CB6
:1056F0006577617265732F54686972645F50617277
:1057000074792F4C7749502F7372632F636F7265D2
:105710002F706275662E63007020213D204E554C1F
:105720004C000000417373657274696F6E2022250E
:105730007322206661696C6564206174206C696EF7
:105740006520256420696E2025730A0070627566E5
:105750005F667265653A20702D3E726566203E2058
:105760003000000070632D3E637573746F6D5F666B
:105770007265655F66756E6374696F6E20213D208A
:105780004E554C4C00000000696E76616C696420D7
:10579000706275662074797065000000064900200B
:1057A00008700648006804E0416F09B101F076BA5C
:1057B000C0680028F8D170476C00002088000020E5
:1057C0000122AFF30080002902DA494200F0F0B86C
:1057D000FFF7D8BA70B50024DDE90456C0E90041EE
:1057E000028143810573467301218173C47370BDC7
:1057F0002DE9F0410D46040006D121A34FF4CC72EF
:105800002BA131A0FBF7E2FF2089A84235D9401B2C
:1058100086B240F2AF170CE0281A85B22089801BAF
:10582000208124682CB916A33A4631A126A0FBF7A3
:10583000CDFF6089A842EFD3207B000715D1608996
:10584000A84212D0607B80070FD4A088001B284498
:1058500081B22046FEF722FE040006D108A340F2E2
:10586000BD1229A118A0FBF7B1FF65812581206831
:1058700008B1FFF7E9FE00202060BDE8F0810000DC
:105880002E2E2F4D6964646C6577617265732F5499
:10589000686972645F50617274792F4C7749502F38
:1058A0007372632F636F72652F706275662E63006B
:1058B000706275665F7265616C6C6F633A20702010
:1058C000213D204E554C4C00417373657274696FD5
:1058D0006E2022257322206661696C6564206174E4
:1058E000206C696E6520256420696E2025730A008E
:1058F000706275665F7265616C6C6F633A207120CF
:10590000213D204E554C4C006D656D5F7472696D84
:105910002072657475726E65642071203D3D204E65
:10592000554C4C0000280CD0817B491C11F0FF0124
:10593000817306D103A340F242320EA112A0FBF7FD
:1059400045BF70472E2E2F4D6964646C6577617278
:1059500065732F54686972645F50617274792F4C5B
:105960007749502F7372632F636F72652F70627562
:10597000662E63007062756620726566206F7665BC
:1059800072666C6F77000000417373657274696FA3
:105990006E2022257322206661696C656420617423
:1059A000206C696E6520256420696E2025730A00CD
:1059B00010B520B1B1F5803F06D3012010BD0FA373
:1059C00040F24B2219A109E000290BD043898AB289
:1059D000934209D209A340F2552217A11EA0FBF75A
:1059E000F5FEEAE7002010BD446821444160991AA1
:1059F00041810189891A0181F4E700002E2E2F4D83
:105A00006964646C6577617265732F546869726448
:105A10005F50617274792F4C7749502F7372632FE6
:105A2000636F72652F706275662E63007020213D72
:105A3000204E554C4C000000696E6372656D656EBA
:105A4000745F6D61676E6974756465203C3D20709C
:105A50002D3E6C656E000000417373657274696F52
:105A60006E2022257322206661696C656420617452
:105A7000206C696E6520256420696E2025730A00FC
:105A80002DE9F04700279046894616466FF00F042F
:105A900000280FD0B9F1000F11D00289B24217D2FD
:105AA0001EA340F2B54229A130A0FBF78FFE2011C2
:105AB000BDE8F08719A340F2B34236A103E017A373
:105AC00040F2B44239A129A0FBF780FE2046EFE75F
:105AD000044640F2BD4A14E02CB910A352463AA144
